:1000000072C000009EC000009CC000009AC00000AA
:1000100098C0000096C0000094C0000092C000008C
:1000200090C000008EC000008CC000008AC000009C
:1000300088C0000086C0000084C0000082C00000AC
:1000400080C000007EC000007CC000007AC00000BC
:1000500078C0000076C0000074C0000000C300003B
:1000600070C00000C6C200009BC200006AC0000051
:1000700068C0000066C0000064C0000062C00000EC
:1000800060C000005EC000005CC000005AC00000FC
:1000900051C2000026C2000054C0000052C000003F
:1000A00050C000004EC000004CC000004AC000001C
:1000B00048C0000046C0000044C0000042C000002C
:1000C00040C000003EC000003CC000003AC000003C
:1000D00038C0000036C0000034C0000032C000004C
:1000E00030C00000790311241FBECFEFD1E2DEBF84
:1000F000CDBF00E00CBF23E0AEE5B2E001C01D9231
:10010000AD3EB207E1F712E0A0E0B2E0E0E2FCE0D1
:1001100000E00BBF02C007900D92AE35B107D9F7D2
:1001200010E0C3E7D0E000E005C021970109802F6F
:10013000FE0168D5C237D10780E00807B1F73ED38A
:100140006DC55ECFFC01A089B18982E08C93A48546
:10015000B5851C92A685B78580E18C93108EA48905
:10016000B58986E08C93A289B3898C9180618C9348
:10017000A289B3898C9188608C93A289B3898C9170
:1001800080688C930288F389E02D80818F7D808345
:100190000895CF92DF92EF92FF920F931F93CF9328
:1001A000DF936C017A018B01C0E0D0E0CE15DF0552
:1001B00081F0D8016D918D01D601ED91FC910190F6
:1001C000F081E02DC6011995892B11F02196EECF13
:1001D0007E01C701DF91CF911F910F91FF90EF90AA
:1001E000DF90CF900895089580E090E00895FC019D
:1001F000538D448D252F30E0842F90E0821B930B8C
:10020000541710F0CF96089501970895FC01918D31
:10021000828D981761F0828DDF01A80FB11D5D9668
:100220008C91928D9F5F9F73928F90E008958FEFD6
:100230009FEF0895FC01918D828D981731F0828D8A
:10024000E80FF11D858D90E008958FEF9FEF0895E1
:10025000FC01918D228D892F90E0805C9F4F821B45
:1002600091098F73992708958BE692E0F1DF21E0E1
:10027000892B09F420E0822F089588E093E0E8DFDD
:1002800021E0892B09F420E0822F0895FC01848D60
:10029000DF01A80FB11DA35ABF4F2C91848D90E0B0
:1002A00001968F739927848FA689B7892C93A0898B
:1002B000B1898C91837080648C93938D848D981315
:1002C00006C00288F389E02D80818F7D80830895A8
:1002D000EF92FF920F931F93CF93DF93EC0181E096
:1002E000888F9B8D8C8D981305C0E889F989808152
:1002F00085FD25C0F62E0B8D10E00F5F1F4F0F738D
:100300001127E02E8C8DE8120BC00FB607FCFACF38
:10031000E889F989808185FFF5CFCE01B7DFF2CF7B
:100320008B8DFE01E80FF11DE35AFF4FF0829FB75E
:10033000F8940B8FEA89FB89808180620AC09FB79D
:10034000F894EE89FF896083E889F9898081837058
:10035000806480839FBF81E090E0DF91CF911F9107
:100360000F91FF90EF900895CF93DF93EC01888D6C
:100370008823C1F0EA89FB89808185FD05C0A889B1
:10038000B9898C9186FD0EC00FB607FCF5CF808130
:1003900085FFF2CFA889B9898C9185FFEDCFCE0179
:1003A00075DFE8CFDF91CF91089580E090E0892B51
:1003B00019F063DF811120C080E090E0892B19F0F3
:1003C00053DF81111CC080E090E0892B41F080E078
:1003D00090E0892B21F00E940000811113C080E081
:1003E00090E0892BA1F080E090E0892B81F00E94C1
:1003F000000081110AC008950E940000DDCF0E9414
:100400000000E1CF0E940000EACF0C9400000895A4
:100410002FB7F89460916302709164028091650235
:10042000909166022FBF0895F5D36115710579F09B
:10043000FB0101900020E9F73197AF01461B570BF4
:10044000DC01ED91FC910280F381E02D199480E0B4
:1004500090E008958F929F92AF92BF92EF92FF9299
:100460000F931F93CF93DF93CDB7DEB7A1970FB64E
:10047000F894DEBF0FBECDBF7C01FA01CB0119A2FB
:10048000223008F42AE08E010F5D1F4F822E912C3E
:10049000A12CB12CBF01A501940192D3F901CA018D
:1004A000015011096A3014F4605D01C0695CD80123
:1004B0006C93232B242B252B69F7B801C701B5DFDB
:1004C000A1960FB6F894DEBF0FBECDBFDF91CF91DE
:1004D0001F910F91FF90EF90BF90AF909F908F90E2
:1004E00008951F920F920FB60F9211240BB60F9220
:1004F0002F933F934F935F936F937F938F939F932C
:10050000AF93BF93EF93FF938BE692E0BFDEFF9133
:10051000EF91BF91AF919F918F917F916F915F917B
:100520004F913F912F910F900BBE0F900FBE0F90E8
:100530001F9018951F920F920FB60F9211240BB6B1
:100540000F922F938F939F93EF93FF93E0917B02F2
:10055000F0917C028081E0918102F091820282FD23
:1005600012C09081809184028F5F8F7320918502E9
:10057000821751F0E0918402F0E0E559FD4F958F2C
:100580008093840201C08081FF91EF919F918F91B0
:100590002F910F900BBE0F900FBE0F901F901895CC
:1005A0001F920F920FB60F9211240BB60F922F933A
:1005B0003F934F935F936F937F938F939F93AF93EB
:1005C000BF93EF93FF9388E093E060DEFF91EF919C
:1005D000BF91AF919F918F917F916F915F914F915B
:1005E0003F912F910F900BBE0F900FBE0F901F9059
:1005F00018951F920F920FB60F9211240BB60F92FF
:100600002F938F939F93EF93FF93E0911803F091B3
:1006100019038081E0911E03F0911F0382FD12C037
:100620009081809121038F5F8F7320912203821725
:1006300051F0E0912103F0E0E85FFC4F958F80934B
:10064000210301C08081FF91EF919F918F912F91A4
:100650000F900BBE0F900FBE0F901F9018951F921A
:100660000F920FB60F9211242F933F938F939F9366
:10067000AF93BF938091630290916402A091650251
:10068000B09166023091620223E0230F2D3720F4EF
:100690000196A11DB11D05C026E8230F0296A11DDC
:1006A000B11D209362028093630290936402A09331
:1006B0006502B093660280915E0290915F02A09104
:1006C0006002B09161020196A11DB11D80935E028E
:1006D00090935F02A0936002B0936102BF91AF91CB
:1006E0009F918F913F912F910F900FBE0F901F9070
:1006F0001895EBE6F2E01382128248EE53E060E0D8
:1007000070E0448355836683778384E092E091832D
:1007100080832DEC30E0358724872CEC30E0378760
:10072000268728EC30E0318B208B29EC30E0338BAE
:10073000228B2AEC30E0358B248B2EEC30E0378B8B
:10074000268B118E128E138E148EE8E0F3E0138246
:10075000128244835583668377839183808385ECFB
:1007600090E09587848784EC90E09787868780EC7B
:1007700090E0918B808B81EC90E0938B828B82EC6C
:1007800090E0958B848B86EC90E0978B868B118E16
:10079000128E138E148EE5EAF3E01682178210860D
:1007A0001186128613861486158616861786108A79
:1007B000118A128A138A148A158A0895789484B546
:1007C000826084BD84B5816084BD85B5826085BD4D
:1007D00085B5816085BD80916E00816080936E00DB
:1007E00010928100809181008260809381008091CD
:1007F000810081608093810080918000816080937E
:1008000080008091B10084608093B1008091B0003D
:1008100081608093B000809191008260809391000C
:10082000809191008160809391008091900081601F
:10083000809390008091A10082608093A1008091BC
:10084000A10081608093A1008091A00081608093CD
:10085000A00080912101826080932101809121017B
:10086000816080932101809120018160809320012B
:1008700080917A00846080937A0080917A0082600F
:1008800080937A0080917A00816080937A008091D1
:100890007A00806880937A001092C1001092E90378
:1008A0001092EA031092EB031092EC031092A7034C
:1008B0001092A8031092A9031092AA03A9DD6B015C
:1008C0007C014B015C0128EB820E2BE0921EA11CE7
:1008D000B11C9EDD6C157D058E059F0528F08616E2
:1008E0009706A806B906A8F788E093E09093E80376
:1008F0008093E70327DC8CDD6093A7037093A80344
:100900008093A9039093AA0362E172E08091E703C8
:100910009091E8038ADD7CDD6B017C014B015C0179
:100920003AE0830E911CA11CB11C72DD6C157D0593
:100930008E059F0528F086169706A806B906A8F723
:1009400081E08093BB0388E093E0FCDB8BE692E0E0
:10095000F9DB64E272E088E093E067DD61E272E077
:1009600088E093E062DD84EF882E99249394A12C93
:10097000B12C4EDD672B682B692B39F449DD6230D1
:1009800071058105910508F4FBC042DDC090670246
:10099000D0906802E0906902F0906A026C157D05C3
:1009A0008E059F0540F46093670270936802809300
:1009B000690290936A02C0906702D0906802E0904A
:1009C0006902F0906A029B01AC012C193D094E09A5
:1009D0005F0969017A013AEFC316D104E104F10419
:1009E00008F4CEC060936702709368028093690236
:1009F00090936A028092B3039092B403A092B503DD
:100A0000B092B6031092B7031092B8031092B903D4
:100A10001092BA038091AB039091AC03A091AD0307
:100A2000B091AE038093AF039093B003A093B10352
:100A3000B093B203EDDC6093AB037093AC0380938F
:100A4000AD039093AE03E4DC6093A7037093A80317
:100A50008093A9039093AA03DBDC6B017C0169E41A
:100A600072E08091E7039091E803DFDC2AE041E047
:100A700050E060E070E08091E7039091E803EADCE9
:100A800060E572E08091E7039091E803CEDC2AE014
:100A9000B701A6018091E7039091E803DBDC62E5F2
:100AA00072E08091E7039091E803BFDC8091AB0393
:100AB0009091AC03A091AD03B091AE03B701A60134
:100AC000481B590B6A0B7B0B2AE08091E70390913E
:100AD000E803C0DC62E572E08091E7039091E803EF
:100AE000A4DC4091AB035091AC036091AD037091D5
:100AF000AE038091AF039091B003A091B103B09188
:100B0000B203481B590B6A0B7B0B2AE08091E70369
:100B10009091E8039FDC64E572E08091E703909197
:100B2000E80383DC75DCAB01BC012AE08091E703BC
:100B30009091E8038FDCE090E703F090E80366E52E
:100B400072E0C70172DC61E272E0C7016EDC60DC5A
:100B50006B017C012B013C0145E0440E511C611CE2
:100B6000711C56DC6C157D058E059F0518F550DC53
:100B70006093AB037093AC038093AD039093AE038B
:100B80008BE692E065DB892B39F08BE692E03EDB69
:100B9000682F88E093E09CDB88E093E059DB892BA9
:100BA00039F088E093E032DB682F88E093E090DB57
:100BB000FCDBDFCE461657066806790690F6D7CFDF
:100BC000A1E21A2EAA1BBB1BFD010DC0AA1FBB1F51
:100BD000EE1FFF1FA217B307E407F50720F0A21BC3
:100BE000B30BE40BF50B661F771F881F991F1A9430
:100BF00069F760957095809590959B01AC01BD015A
:100C0000CF010895EE0FFF1F881F8BBF0790F6914D
:100C1000E02D199481E090E0F89400C0F894FFCFA3
:100C2000000000006801C900F700B40128010601B6
:100C30001A01564D4450565F317C315F564D445039
:100C4000560D0A002D2D2D2D2D2D2D2D2D2D496EBE
:100C5000696369616E646F20636F6E736F6C612D81
:100C60002D2D2D2D2D2D2D2D00564D4450455F0041
:0E0C70003A323A007C005F564D445045000079
:00000001FF
