:1000000072C00000A0C000009EC000009CC00000A4
:100010009AC0000098C0000096C0000094C0000084
:1000200092C0000090C000008EC000008CC0000094
:100030008AC0000088C0000086C0000084C00000A4
:1000400082C0000080C000007EC000007CC00000B4
:100050007AC0000078C0000076C00000DBC6000057
:1000600072C00000A1C6000076C600006CC000008F
:100070006AC0000068C0000066C0000064C00000E4
:1000800062C0000060C000005EC000005CC00000F4
:100090002CC6000001C6000056C0000054C000007D
:1000A00052C0000050C000004EC000004CC0000014
:1000B0004AC0000048C0000046C0000044C0000024
:1000C00042C0000040C000003EC000003CC0000034
:1000D0003AC0000038C0000036C0000034C0000044
:1000E00032C00000540711241FBECFEFD1E2DEBFA3
:1000F000CDBF00E00CBF23E0A0E9B2E001C01D923B
:10010000A93DB207E1F712E0A0E0B2E0E4E0F9E1D6
:1001100000E00BBF02C007900D92A039B107D9F7DC
:1001200010E0C3E7D0E000E006C021970109802F6E
:10013000FE010E94490AC237D10780E00807A9F7EB
:1001400028D70C94800C5CCF8091D3039091D4037A
:10015000DC01ED91FC910084F185E02D19951816D4
:10016000190664F48091D3039091D403DC01ED91DE
:10017000FC910284F385E02D1995E6CF0895CF9286
:10018000DF92EF92FF92CF93DF93EC016A017B0144
:10019000E889F98982E080834115514E6105710536
:1001A000B1F060E079E08DE390E0A70196010E9454
:1001B000270ADA01C9010197A109B109B695A795E6
:1001C000979587959C01211580E13807A8F0E8896B
:1001D000F989108260E874E88EE190E0A701960149
:1001E0000E94270ADA01C9010197A109B109B69550
:1001F000A795979587959C01EC85FD853083EE85C5
:10020000FF852083188EEC89FD8986E08083EA894A
:10021000FB89808180618083EA89FB898081886095
:100220008083EA89FB89808180688083EA89FB89F1
:1002300080818F7D8083DF91CF91FF90EF90DF9061
:10024000CF9008950895CF92DF92EF92FF920F938F
:100250001F93CF93DF936C017A018B01C0E0D0E054
:10026000CE15DF0581F0D8016D918D01D601ED919C
:10027000FC910190F081E02DC6011995892B11F0B8
:100280002196EECF7E01C701DF91CF911F910F9193
:10029000FF90EF90DF90CF90089580E090E0089578
:1002A000FC01538D448D252F30E0842F90E0821B7C
:1002B000930B541710F0CF96089501970895FC0101
:1002C000918D828D981761F0828DDF01A80FB11D8D
:1002D0005D968C91928D9F5F9F73928F90E00895B1
:1002E0008FEF9FEF0895FC01918D828D981731F06B
:1002F000828DE80FF11D858D90E008958FEF9FEFBF
:100300000895FC01918D228D892F90E0805C9F4F94
:10031000821B91098F739927089586E393E0F1DF9B
:1003200021E0892B09F420E0822F089589E992E0E9
:10033000E8DF21E0892B09F420E0822F0895FC01F9
:10034000848DDF01A80FB11DA35ABF4F2C91848D5E
:1003500090E001968F739927848FA689B7892C9393
:10036000A089B1898C91837080648C93938D848DE6
:10037000981306C00288F389E02D80818F7D8083E9
:100380000895EF92FF920F931F93CF93DF93EC01A9
:1003900081E0888F9B8D8C8D981305C0E889F98941
:1003A000808185FD25C0F62E0B8D10E00F5F1F4F5D
:1003B0000F731127E02E8C8DE8120BC00FB607FCCF
:1003C000FACFE889F989808185FFF5CFCE01B7DFC3
:1003D000F2CF8B8DFE01E80FF11DE35AFF4FF08243
:1003E0009FB7F8940B8FEA89FB89808180620AC0ED
:1003F0009FB7F894EE89FF896083E889F989808145
:100400008370806480839FBF81E090E0DF91CF9113
:100410001F910F91FF90EF900895CF93DF93EC0120
:10042000888D8823C1F0EA89FB89808185FD05C01C
:10043000A889B9898C9186FD0EC00FB607FCF5CF4F
:10044000808185FFF2CFA889B9898C9185FFEDCF96
:10045000CE0175DFE8CFDF91CF91089580E090E085
:10046000892B19F063DF811120C080E090E0892B97
:1004700019F053DF81111CC080E090E0892B41F01E
:1004800080E090E0892B21F00E940000811113C0D0
:1004900080E090E0892BA1F080E090E0892B81F052
:1004A0000E94000081110AC008950E940000DDCF63
:1004B0000E940000E1CF0E940000EACF0C940000EF
:1004C00008953FB7F8948091950290919602A0917B
:1004D0009702B091980226B5A89B05C02F3F19F04E
:1004E0000196A11DB11D3FBFBA2FA92F982F8827B4
:1004F000820F911DA11DB11DBC01CD0142E0660F0F
:10050000771F881F991F4A95D1F708958F929F9260
:10051000AF92BF92CF92DF92EF92FF926B017C017C
:10052000D0DF4B015C01C114D104E104F104E9F016
:10053000C8DFDC01CB0188199909AA09BB09883EEB
:100540009340A105B10578F321E0C21AD108E10872
:10055000F10888EE880E83E0981EA11CB11CC1141E
:10056000D104E104F10421F7DECFFF90EF90DF909A
:10057000CF90BF90AF909F908F9008952FB7F89431
:1005800060919102709192028091930290919402F5
:100590002FBF0895CF93DF93FC0124813581232B56
:1005A00071F0FB01DC01CD91DC9160817181CE01A4
:1005B0000E94660C009719F08C1B9D0B02C08FEFF8
:1005C0009FEFDF91CF910895CF93DF93EC01888166
:1005D0009981009709F0FDD7198218821D821C822B
:1005E0001B821A82DF91CF910895FC018081918155
:1005F000F0C70F931F93CF93DF938C01EB01FC01A6
:1006000080819181009731F0688179816115710550
:1006100099F4DFD788819981F801918380838A8159
:100620009B81938382838C819D81958384831982AE
:1006300018821B821A820FC0F801428153812C81DB
:100640003D814217530728F30E945F0C8C819D81E6
:10065000F801958384831D821C82DF91CF911F91C5
:100660000F9108956115710579F0FB01019000204B
:10067000E9F73197AF01461B570BDC01ED91FC9177
:100680000280F381E02D199480E090E008958F922C
:100690009F92AF92BF92EF92FF920F931F93CF93CF
:1006A000DF93CDB7DEB7A1970FB6F894DEBF0FBECC
:1006B000CDBF7C01FA01CB0119A2223008F42AE057
:1006C0008E010F5D1F4F822E912CA12CB12CBF01EA
:1006D000A5019401BCD6F901CA01015011096A3083
:1006E00014F4605D01C0695CD8016C93232B242B4A
:1006F000252B69F7B801C701B5DFA1960FB6F894AD
:10070000DEBF0FBECDBFDF91CF911F910F91FF9044
:10071000EF90BF90AF909F908F9008950F931F938D
:10072000CF93DF93EC019EDF8C0168E172E0CE0194
:1007300099DF800F911FDF91CF911F910F91089545
:100740000E94520C0F931F93CF93DF93EC0188818B
:100750009981009729F02A813B812617370780F479
:100760008B016F5F7F4FBED7009761F099838883BD
:100770001B830A832C813D81232B11F4FC01108201
:1007800081E001C080E0DF91CF911F910F9108952A
:10079000EF92FF920F931F93CF93DF931F921F92BD
:1007A000CDB7DEB78C0169831A82FC01E480F58045
:1007B000FFEFEF1AFF0AB701C5DF882381F0F801C8
:1007C0002081318184819581BE016F5F7F4F820FCF
:1007D000931F0E945F0CF801F582E48281E00F9084
:1007E0000F90DF91CF911F910F91FF90EF9008959F
:1007F000EF92FF920F931F93CF93DF93EC017B0156
:100800008A01BA019FDF811103C0CE01DDDE07C07E
:100810001D830C83B701888199810E945F0CCE01F2
:10082000DF91CF911F910F91FF90EF900895CF939B
:10083000DF93EC01FB018617970751F0608171810E
:100840006115710521F044815581D2DF01C0BCDE04
:10085000CE01DF91CF910895FC01118210821382A5
:100860001282158214826115710549F0FB01019015
:100870000020E9F73197AF01461B570BB9CF089518
:10088000CF92DF92EF92FF921F93CF93DF93CDB77A
:10089000DEB7AA970FB6F894DEBF0FBECDBF18A281
:1008A0001F8E1AA219A21CA21BA2BC01CE014F9638
:1008B000BEDF6BE172E0CE018596CEDF6AE172E0C9
:1008C000CE014996C9DF40DC6FE172E08091D3032D
:1008D0009091D403C7DE8091D3039091D40349A5AE
:1008E0005AA56DA17EA1DC01ED91FC910280F381FE
:1008F000E02D19956DE272E08091D3039091D403BD
:10090000B1DE8091D3039091D4034BA15CA16F8D94
:1009100078A1DC01ED91FC910280F381E02D199525
:1009200061E372E08091D3039091D4039BDEE09069
:10093000D303F090D4032AE040E550E060E070E09B
:10094000C701A5DE68E172E0C7018CDE64E372E0F6
:10095000CE010D9681DF64E472E0CE0107967CDF64
:1009600063E672E0CE01019677DF6AE172E0CE01C4
:10097000439672DF03DE6B017C0100DEDC01CB01FC
:100980008C199D09AE09BF0980319742A105B105B7
:1009900090F1BE016D5E7F4FCE0149962ADECE01F9
:1009A000439623DECE01019620DECE0107961DDEA2
:1009B000CE010D961ADE63E672E0CE0107964CDF9B
:1009C000BE01695F7F4FCE014996E4DD019609F0D3
:1009D0004FC03BC08091D3039091D403DC01ED91D3
:1009E000FC910284F385E02D1995882321F0682F6E
:1009F000CE014396CDDE8091D3039091D403DC01E8
:100A0000ED91FC910084F185E02D199518161906D9
:100A10000CF3BE016F5F7F4FCE014396BBDD0196A5
:100A200009F0B7CFBE01695F7F4FCE014396B2DDBB
:100A3000019609F0AECFBE01635F7F4FCE014396B2
:100A4000A9DD019609F499CFA4CF64E372E0CE0149
:100A5000019602DFBE016F5F7F4FCE0149969ADD9E
:100A600011E0019609F410E0CE010196BEDD01C04F
:100A700011E0CE010796B9DDCE014996B6DDCE0173
:100A80008596B3DDCE014F96B0DD812FAA960FB6C5
:100A9000F894DEBF0FBECDBFDF91CF911F91FF90C5
:100AA000EF90DF90CF900895CF92DF92EF92FF9278
:100AB0000F931F93CF93DF93EC018B016AE172E0F8
:100AC000CBDE5CDD6B017C0159DDDC01CB018C19D7
:100AD0009D09AE09BF09883E9340A105B10520F5E7
:100AE0008091D3039091D403DC01ED91FC910084BB
:100AF000F185E02D1995181619068CF48091D30311
:100B00009091D403DC01ED91FC910284F385E02DFA
:100B10001995882329F3682FCE013ADEE1CFB80179
:100B2000CE0138DD019681F2CE01DF91CF911F9188
:100B30000F91FF90EF90DF90CF9008950F931F9348
:100B4000CF93DF93CDB7DEB762970FB6F894DEBFD1
:100B50000FBECDBF8C016AE172E0CE010D967CDE46
:100B600018861F821A8619861C861B86B801CE013C
:100B700007965DDEBE01695F7F4FCE01019694DF6F
:100B8000BE016F5F7F4FCE010D9633DDCE01019622
:100B90002CDDCE01079629DDB801CE010D96FADCD9
:100BA0008C01CE010D9621DD81E00F3F1F4F09F42E
:100BB00080E062960FB6F894DEBF0FBECDBFDF9126
:100BC000CF911F910F910895CF92DF92EF92FF92F4
:100BD0001F93CF93DF9300D000D0CDB7DEB7B4DA48
:100BE0006AE472E08091D3039091D40397DD63E6C9
:100BF00072E0CE01019630DECE0101969FDF182F04
:100C0000CE010196F2DC112309F436C060ED77E0E5
:100C100080E090E07BDCB2DC6B017C01AFDCDC01CE
:100C2000CB018C199D09AE09BF09883B9B40A105EA
:100C3000B10510F589DA61E572E08091D3039091F6
:100C4000D4036CDD63E672E0CE01019605DECE01D1
:100C5000019674DF182FCE010196C7DC112331F005
:100C60006CED75E080E090E051DC07C064E670E078
:100C700080E090E04BDCD2CF10E0812F26960FB6BB
:100C8000F894DEBF0FBECDBFDF91CF911F91FF90D3
:100C9000EF90DF90CF9008951F920F920FB60F92B2
:100CA00011240BB60F922F933F934F935F936F9343
:100CB0007F938F939F93AF93BF93EF93FF9386E3BD
:100CC00093E03DDBFF91EF91BF91AF919F918F91A9
:100CD0007F916F915F914F913F912F910F900BBE3C
:100CE0000F900FBE0F901F9018951F920F920FB686
:100CF0000F9211240BB60F922F938F939F93EF9324
:100D0000FF93E0914603F09147038081E0914C030B
:100D1000F0914D0382FD12C0908180914F038F5F4F
:100D20008F7320915003821751F0E0914F03F0E050
:100D3000EA5CFC4F958F80934F0301C08081FF9147
:100D4000EF919F918F912F910F900BBE0F900FBE3F
:100D50000F901F9018951F920F920FB60F921124AB
:100D60000BB60F922F933F934F935F936F937F93A5
:100D70008F939F93AF93BF93EF93FF9389E992E093
:100D8000DEDAFF91EF91BF91AF919F918F917F91AB
:100D90006F915F914F913F912F910F900BBE0F90EC
:100DA0000FBE0F901F9018951F920F920FB60F92C3
:100DB00011240BB60F922F938F939F93EF93FF9372
:100DC000E091A902F091AA028081E091AF02F09136
:100DD000B00282FD12C090818091B2028F5F8F734A
:100DE0002091B302821751F0E091B202F0E0E75691
:100DF000FD4F958F8093B20201C08081FF91EF91EA
:100E00009F918F912F910F900BBE0F900FBE0F905F
:100E10001F9018951F920F920FB60F9211242F93C7
:100E20003F938F939F93AF93BF9380919102909143
:100E30009202A0919302B09194023091900223E02B
:100E4000230F2D3720F40196A11DB11D05C026E802
:100E5000230F0296A11DB11D209390028093910251
:100E600090939202A0939302B09394028091950282
:100E700090919602A0919702B09198020196A11DBF
:100E8000B11D8093950290939602A0939702B09320
:100E90009802BF91AF919F918F913F912F910F90A9
:100EA0000FBE0F901F901895E6E3F3E013821282B5
:100EB00048EE53E060E070E04483558366837783B7
:100EC0008AE092E0918380832DEC30E0358724879F
:100ED0002CEC30E03787268728EC30E0318B208BF4
:100EE00029EC30E0338B228B2AEC30E0358B248BDD
:100EF0002EEC30E0378B268B118E128E138E148ED3
:100F0000A9E9B2E013961C921E92129714964D9383
:100F10005D936D937C93179711969C938E9385ECBC
:100F200090E01D969C938E931C9784EC90E01F9606
:100F30009C938E931E9780EC90E051969C938E9399
:100F4000509781EC90E053969C938E93529782EC4D
:100F500090E055969C938E93549786EC90E057962C
:100F60009C938E93569759961C9259975A961C9219
:100F70005A975B961C925B975C961C92F093D403F5
:100F8000E093D30340E855E260E070E0CF01F7D88A
:100F9000DBC8CF93DF93CDB7DEB7AA970FB6F8942F
:100FA000DEBF0FBECDBF789484B5826084BD84B5AA
:100FB000816084BD85B5826085BD85B5816085BD54
:100FC00080916E00816080936E001092810080910C
:100FD0008100826080938100809181008160809394
:100FE0008100809180008160809380008091B100B9
:100FF00084608093B1008091B00081608093B000E4
:101000008091910082608093910080919100816035
:1010100080939100809190008160809390008091F6
:10102000A10082608093A1008091A10081608093E3
:10103000A1008091A00081608093A0008091210197
:101040008260809321018091210181608093210140
:101050008091200181608093200180917A008460DA
:1010600080937A0080917A00826080937A008091E8
:101070007A00816080937A0080917A008068809302
:101080007A001092C10040E052EC61E070E089E922
:1010900092E075D840E052EC61E070E086E393E0C6
:1010A0006ED892DD64EF71E080E090E02FDA6AE1C3
:1010B00072E0CE018596D0DB47D864E572E080917E
:1010C000D3039091D4032ADB6FE572E0CE014F96F3
:1010D000C3DB66E672E0CE014996BEDB63E672E0F2
:1010E000CE014396B9DB6AE172E0CE010D96B4DB26
:1010F0001A8219821C821B821E821D82BE016D5EB5
:101100007F4FCE01019693DBBE016F5F7F4FCE0113
:101110000796CADCBE01695F7F4FCE010D9669DA82
:10112000CE01079662DACE0101965FDABE016D5EEE
:101130007F4FCE010D962EDA019609F464C0BE01F0
:10114000675E7F4FCE010D9625DA4C01990FAA08F4
:10115000BB08BE01615E7F4FCE010D961BDAAFEF7B
:101160008A169A06AA06BA0609F44DC08F3FBFEF49
:101170009B0709F448C06C018D8D9E8D880E991EC9
:10118000A11CB11C7401C814D90410F476016401C7
:101190006AE172E0CE0101965FDB09891A89E016E7
:1011A000F10630F5C016D10608F48601ED85FE85FE
:1011B000E00FF11FD08010826D857E856E0D7F1D42
:1011C0006115710561F0FB0101900020E9F731978D
:1011D000AF01461B570BCE0101960ADB03C0CE01BF
:1011E0000196F2D98D859E85FC01E00FF11FD0821A
:1011F000BE016F5F7F4FCE018596FBD9CE01019670
:10120000F4D911E008C040E050E06AE172E0CE019C
:101210008596EEDA10E0CE010D96E7D9CE01439621
:10122000E4D9CE014996E1D9CE014F96DED91123FA
:1012300041F08DA19EA1009711F0CED001C060E0D9
:10124000762ECE018596D1D9112309F4A9C022E0CA
:10125000721609F4A5C06AE172E0CE014396FCDA89
:101260000E94A4006FE672E08091D3039091D403B2
:10127000F9D9E090D303F090D4032AE042E050E0A3
:1012800060E070E0C70103DA68E172E0C701EAD903
:101290006AE772E0CE010796DFDA63E672E0CE011C
:1012A0000196DADA6AE172E0CE010D96D5DA66D9F6
:1012B0006B017C0163D9DC01CB018C199D09AE095E
:1012C000BF09883E9340A105B10578F1BE01635F77
:1012D0007F4FCE0143968DD9CE010D9686D9CE0192
:1012E000019683D9CE01079680D963E672E0CE01DC
:1012F0000796B2DABE01695F7F4FCE0143964AD9A5
:10130000019609F045C032C08091D3039091D40377
:10131000DC01ED91FC910284F385E02D1995882381
:1013200021F0682FCE010D9633DA8091D30390918E
:10133000D403DC01ED91FC910084F185E02D199539
:10134000181619060CF3BE016F5F7F4FCE010D9684
:1013500021D9019609F0BACFBE01695F7F4FCE0156
:101360000D9618D9019609F4A5CFB0CF6AE772E0BF
:10137000CE01019671DABE016F5F7F4FCE014396B9
:1013800009D911E0019609F410E0CE0101962DD99A
:10139000CE0107962AD9CE01439627D9111114DC24
:1013A00064E872E0CE01019657DACE01019668DA60
:1013B000CE0101961AD986E393E00E948101892B20
:1013C00049F086E393E00E945F01682F89E992E08B
:1013D0000E94C10143D8EFCF1F93FC0199278827B2
:1013E000BC01E89411911032E9F3193010F01E306D
:1013F000C8F31B3249F01D3241F4689405C012D085
:10140000610F711D811D911D119110531A30B8F398
:101410003EF490958095709561957F4F8F4F9F4FCB
:101420001F910895592F482F372F262F660F771FAA
:10143000881F991F660F771F881F991F620F731FE0
:10144000841F951F660F771F881F991F0895A1E2BB
:101450001A2EAA1BBB1BFD010DC0AA1FBB1FEE1F2E
:10146000FF1FA217B307E407F50720F0A21BB30B79
:10147000E40BF50B661F771F881F991F1A9469F7F5
:1014800060957095809590959B01AC01BD01CF0151
:101490000895EE0FFF1F881F8BBF0790F691E02D78
:1014A00019940F931F93CF93DF938230910510F41B
:1014B00082E090E0E091D703F091D80320E030E0A3
:1014C000A0E0B0E0309719F1408151810281138191
:1014D00048175907C8F08417950769F4109731F039
:1014E00012960C93129713961C9327C00093D70360
:1014F0001093D80322C02115310519F04217530764
:1015000018F49A01BD01EF01DF01F801DBCF2115CD
:101510003105F9F0281B390B2430310580F48A811C
:101520009B816115710521F0FB019383828304C0C7
:101530009093D8038093D703FE01329644C0FE01F6
:10154000E20FF31F8193919322503109398328834D
:101550003AC02091D5033091D603232B41F420913A
:101560000202309103023093D6032093D5032091D9
:101570000002309101022115310541F42DB73EB72B
:101580004091040250910502241B350BE091D503D4
:10159000F091D603E217F307A0F42E1B3F0B281798
:1015A000390778F0AC014E5F5F4F2417350748F0DC
:1015B0004E0F5F1F5093D6034093D50381939193B1
:1015C00002C0E0E0F0E0CF01DF91CF911F910F91D9
:1015D0000895CF93DF93009709F481C0FC013297FF
:1015E00013821282A091D703B091D803109781F48F
:1015F00020813181820F931F2091D5033091D60332
:101600002817390751F5F093D603E093D50367C047
:10161000ED0120E030E0CE17DF0740F44A815B8126
:101620009E0141155105F1F0EA01F5CFD383C28344
:1016300040815181840F951FC817D90759F48881BB
:101640009981840F951F0296918380838A819B8163
:10165000938382832115310529F4F093D803E09315
:10166000D7033DC0E901FB83EA8349915991C40F37
:10167000D51FEC17FD0761F480819181840F951FC0
:101680000296E90199838883828193819B838A836F
:10169000E0E0F0E012968D919C911397009719F07D
:1016A000FD01DC01F7CF8D919C9111979D012E5F7B
:1016B0003F4F820F931F2091D5033091D6032817F7
:1016C000390769F4309729F41092D8031092D703A0
:1016D00002C013821282B093D603A093D503DF9188
:1016E000CF9108956F927F928F929F92AF92BF9207
:1016F000CF92DF92EF92FF920F931F93CF93DF93DE
:10170000009781F4CB01DF91CF911F910F91FF9052
:10171000EF90DF90CF90BF90AF909F908F907F9091
:101720006F90BFCEFC01E60FF71F9C0122503109DC
:10173000E217F30708F4A5C0EC01D9010D911C9143
:10174000119706171707A8F00530110508F497C080
:10175000C80104978617970708F491C00250110931
:10176000061B170B019311936D937C93CF0131DF0F
:1017700086C05B01A01AB10A4C01800E911EA09197
:10178000D703B091D803612C712CE12CF12C109768
:1017900009F446C08D919C911197A815B905B1F532
:1017A0006C0142E0C40ED11CCA14DB0478F14C0178
:1017B0008A189B08640142E0C40ED11C1296BC90AA
:1017C00012971396AC91B5E0CB16D10440F0B282DB
:1017D000A38391828082D9016D937C9309C00E5FAF
:1017E0001F4F800F911FF90191838083EB2DFA2FFA
:1017F000E114F10431F0D7011396FC93EE931297A4
:101800003EC0F093D803E093D70339C06816790639
:1018100008F43C017D0112960D90BC91A02DB7CF2C
:101820008091D5039091D60388169906E1F4661647
:101830007706C8F48091000290910102009741F46C
:101840008DB79EB74091040250910502841B950B01
:10185000E817F907B0F4F093D603E093D503F90144
:10186000718360830CC0CB011CDE7C01009749F0C2
:10187000A801BE011BD0CE01ACDEC70104C0CE0161
:1018800002C080E090E0DF91CF911F910F91FF9017
:10189000EF90DF90CF90BF90AF909F908F907F9010
:1018A0006F90089581E090E0F8942AC0FB01DC017C
:1018B00002C001900D9241505040D8F70895FB01AD
:1018C000DC0101900D920020E1F70895FB01519198
:1018D0005523A9F0BF01DC014D9145174111E1F7F6
:1018E00059F4CD010190002049F04D91401541116E
:1018F000C9F3FB014111EFCF81E090E0019708951A
:04190000F894FFCF89
:101904000000D903800000000000C1012301500140
:101914000D0281015F0173010D0A0054435000411F
:10192400542B43495053544152543D2200222C22FB
:1019340000222C00414C524541445920434F4E4E05
:10194400454354004552524F520041542B52535474
:101954000041540041542B43574D4F44453F000D23
:101964000A0D0A4F4B002B43574D4F44453A004153
:10197400542B43574D4F44453D006E6F20636861BF
:101984006E6765003139322E3136382E302E3100F3
:00000001FF
