:1000000093C30000C2C30000C0C30000BEC3000011
:10001000BCC30000BAC30000B8C30000B6C30000F0
:10002000B4C30000B2C30000B0C30000AEC3000000
:10003000ACC30000AAC30000A8C30000A6C3000010
:10004000A4C300000C94BD2BA0C300009EC30000FD
:100050009CC300009AC3000098C300000C94EB2AD4
:1000600094C300000C9407290C94DE288EC3000072
:100070008CC300008AC3000088C3000086C3000050
:100080000C94902B82C3000080C300007EC300004C
:100090000C94A8280C947F2878C300000C943A2470
:1000A00074C3000072C300000C94632B6EC3000085
:1000B0006CC300006AC3000068C300000C94362BB8
:1000C00064C3000062C3000060C300005EC30000A0
:1000D0005CC300005AC3000058C3000056C30000B0
:1000E00054C300001B281E280D2811281728552846
:1000F000222826282C28302834283A283E2842282E
:10010000552848284C2850280102102020080810A3
:100110002040102040800201020108040201010277
:100120000408102040808040201008040201800450
:1001300002018040201008040201080402010102AB
:1001400004081020408001020408102040800000B4
:100150002200250028002B002E003100340002016F
:100160000000050108010B01050505050705080844
:100170000808020202020A0A080804040404010131
:100180000101010101010303030303030303040746
:1001900007070C0C0C0C0C0C0C0C020202020606DD
:1001A0000606060606060B0B0B0B0B0B0B0B0000D3
:1001B0000000003E5B4F5B3E3E6B4F6B3E1C3E7C47
:1001C0003E1C183C7E3C181C577D571C1C5E7F5EF5
:1001D0001C00183C1800FFE7C3E7FF0018241800B4
:1001E000FFE7DBE7FF30483A060E2629792926404B
:1001F0007F050507407F05253F5A3CE73C5A7F3E77
:100200001C1C08081C1C3E7F14227F22145F5F0008
:100210005F5F06097F017F006689956A60606060A4
:100220006094A2FFA29408047E040810207E20108F
:1002300008082A1C08081C2A08081E101010100C98
:100240001E0C1E0C30383E3830060E3E0E060000E6
:1002500000000000005F00000007000700147F148A
:100260007F14242A7F2A12231308646236495620F9
:10027000500008070300001C2241000041221C001E
:100280002A1C7F1C2A08083E0808008070300008DD
:1002900008080808000060600020100804023E51B1
:1002A00049453E00427F4000724949494621414943
:1002B0004D331814127F1027454545393C4A4949AA
:1002C0003141211109073649494936464949291E14
:1002D0000000140000004034000000081422411403
:1002E00014141414004122140802015909063E4155
:1002F0005D594E7C1211127C7F494949363E41417D
:1003000041227F4141413E7F494949417F090909D5
:10031000013E414151737F0808087F00417F410041
:100320002040413F017F081422417F404040407FF0
:10033000021C027F7F0408107F3E4141413E7F093D
:100340000909063E4151215E7F091929462649497E
:10035000493203017F01033F4040403F1F204020BE
:100360001F3F4038403F63140814630304780403BC
:100370006159494D43007F4141410204081020006A
:100380004141417F040201020440404040400003DB
:1003900007080020545478407F28444438384444A7
:1003A0004428384444287F385454541800087E099F
:1003B0000218A4A49C787F0804047800447D4000BF
:1003C0002040403D007F1028440000417F40007CD9
:1003D000047804787C080404783844444438FC18D1
:1003E00024241818242418FC7C08040408485454B5
:1003F000542404043F44243C4040207C1C204020E2
:100400001C3C4030403C44281028444C9090907C48
:100410004464544C4400083641000000770000005A
:100420004136080002010204023C2623263C1EA19C
:10043000A161123A4040207A3854545559215555FB
:1004400079412254547842215554784020545579AA
:10045000400C1E527212395555555939545454593D
:1004600039555454580000457C410002457D4200F6
:1004700001457C407D1211127DF0282528F07C5426
:100480005545002054547C547C0A097F493249491F
:1004900049323A4444443A324A4848303A41412188
:1004A0007A3A42402078009DA0A07D3D4242423DE4
:1004B0003D4040403D3C24FF2424487E4943662B78
:1004C0002FFC2F2BFF0929F620C0887E090320541A
:1004D0005479410000447D413048484A3238404018
:1004E000227A007A0A0A727D0D19317D2629292F78
:1004F00028262929292630484D4020380808080890
:1005000008080808382F10C8ACBA2F102834FA0091
:10051000007B000008142A142222142A1408AA00BE
:100520005500AAAA55AA55AA000000FF00101010F5
:10053000FF00141414FF001010FF00FF1010F01043
:10054000F0141414FC001414F700FF0000FF00FF67
:100550001414F404FC141417101F10101F101F148F
:1005600014141F00101010F0000000001F101010D5
:10057000101F10101010F010000000FF10101010CD
:100580001010101010FF10000000FF140000FF00FA
:10059000FF00001F10170000FC04F41414171017BC
:1005A0001414F404F40000FF00F7141414141414C9
:1005B00014F700F7141414171410101F101F14143C
:1005C00014F4141010F010F000001F101F000000B1
:1005D0001F14000000FC140000F010F01010FF10B9
:1005E000FF141414FF141010101F00000000F0106E
:1005F000FFFFFFFFFFF0F0F0F0F0FFFFFF00000053
:100600000000FFFF0F0F0F0F0F3844443844FC4A1F
:100610004A4A347E02020606027E027E0263554981
:1006200041633844443C04407E201E2006027E0282
:100630000299A5E7A5991C2A492A1C4C7201724C03
:10064000304A4D4D303048784830BC625A463D3EC5
:10065000494949007E0101017E2A2A2A2A2A444466
:100660005F444440514A444040444A51400000FFE6
:100670000103E080FF000008086B6B083612362487
:1006800036060F090F0600001818000000101000B1
:100690003040FF0101001F01011E00191D1712004B
:1006A0003C3C3C3C000000000000002100240027EE
:1006B000002A002D00300033000101000004010772
:1006C000010A01000020002300260029002C002F31
:1006D0000032000001000003010601090100000AC8
:1006E0000B02090C0D0E08070304010000000000B6
:1006F00000000000000000000000000000000000FA
:1007000000000000000000000012111000000000B6
:1007100000000000000000000000000000000000D9
:1007200000000000E54EE04E11241FBECFEFD1E2E5
:10073000DEBFCDBF00E00CBF15E0A0E0B2E0EAEA0A
:10074000FBEA00E00BBF02C007900D92A834B1078E
:10075000D9F728E0A8E4B5E001C01D92A335B2079F
:10076000E1F713E0C3E9D3E000E006C021970109F7
:10077000802FFE010E949B53C239D10780E00807F9
:10078000A9F70E9476350C94C4553ACC2F923F922B
:100790004F925F926F927F928F929F92AF92BF9291
:1007A000CF92DF92EF92FF920F931F93CF93DF933D
:1007B000CDB7DEB764970FB6F894DEBF0FBECDBFDE
:1007C00083E096E00E94FE1686E695E00E94FE1603
:1007D00061EB74E083E096E00E947D266AEB73E0B3
:1007E00083E096E00E947D26109285071092840790
:1007F000109287071092860710928C0781E08093F1
:100800008E0710928D0761E084E10E94652961E006
:1008100085E10E9465298091B9008E7F8093B9009F
:100820008091B9008D7F8093B90088E48093B800EF
:1008300085E48093BC008EEA93E2909389078093CD
:1008400088078FEA93E290938B0780938A07E09161
:100850006007F0916107908180916807892B808300
:10086000E0916407F0916507908180916A07892B78
:100870008083E0916607F0916707908180916B0714
:10088000892B808380917007882371F060E00E943B
:10089000652962E070E080E090E00E94B32A61E0A8
:1008A000809170070E946529E0916007F0916107CF
:1008B000908180916C0789238083E0916207F09199
:1008C0006307908180916D07892380838EB18F7C2F
:1008D0008EB97398A59880910201877E809302015A
:1008E000809102018F7980930201E0916407F09179
:1008F0006507908180916E0789238083E09164076A
:10090000F0916507908180916A07892B808383E04D
:10091000E0916407F0916507208190916E07922322
:100920009083E0916407F0916507208190916A07B8
:10093000922B9083815061F7E0916007F0916107FD
:10094000908180916807892B808364EF71E080E05B
:1009500090E00E94B32A68EC70E080E090E00E9492
:10096000B32A82E080935F07E0916007F09161070E
:10097000908180916C0789238083E0916207F091D8
:100980006307908180916D07892380838EB18F7C6E
:100990008EB97398A59880910201877E8093020199
:1009A000809102018F79806280930201E091640757
:1009B000F0916507908180916E0789238083E09193
:1009C0006407F0916507908180916A07892B808385
:1009D000E0916207F0916307908180916907892B0C
:1009E00080838EB18F7C8EB97398A5988091020117
:1009F000877E80930201809102018F7980930201AA
:100A0000E0916407F0916507908180916E078923DA
:100A10008083E0916407F0916507908180916A0777
:100A2000892B808362E370E080E090E00E94B32A2B
:100A3000E0916207F0916307908180916D078923AF
:100A400080838EB18F7C80628EB9739AA5988091D5
:100A50000201877E80930201809102018F79809349
:100A60000201E0916407F0916507908180916E0723
:100A700089238083E0916407F091650790818091DC
:100A80006A07892B8083E0916207F0916307908168
:100A900080916907892B80838EB18F7C8EB9739882
:100AA000A59880910201877E8093020180910201C6
:100AB0008F7980930201E0916407F091650790813E
:100AC00080916E0789238083E0916407F091650728
:100AD000908180916A07892B8083E0916207F09171
:100AE0006307908180916D07892380838EB18F7C0D
:100AF0008EB97398A5988091020188618093020154
:100B0000809102018F7980930201E0916407F09156
:100B10006507908180916E0789238083E091640747
:100B2000F0916507908180916A07892B8083E0911D
:100B30006207F0916307908180916907892B808318
:100B40008EB18F7C8EB9739AA59880910201877EB1
:100B50008093020180910201806680930201E091FE
:100B60006407F0916507908180916E0789238083E7
:100B7000E0916407F0916507908180916A07892B65
:100B80008083E0916207F0916307908180916D0707
:100B9000892380838EB18F7C8EB97398A5988091BC
:100BA0000201886180930201809102018F79806245
:100BB00080930201E0916407F09165079081809134
:100BC0006E0789238083E0916407F0916507908127
:100BD00080916A07892B8083E0916207F091630717
:100BE000908180916907892B80838EB18F7C8EB92B
:100BF0007398A59A80910201877E8093020180916B
:100C000002018F7980930201E0916407F0916507FA
:100C1000908180916E0789238083E0916407F09131
:100C20006507908180916A07892B8083E091620734
:100C3000F0916307908180916D07892380838EB145
:100C40008F7C8EB97398A59880910201877E8093DE
:100C50000201809102018F7980930201E091640783
:100C6000F0916507908180916E0789238083E091E0
:100C70006407F0916507908180916A07892B8083D2
:100C80008EB18F7C80618EB97398A5988091020196
:100C9000886180930201809102018F798062809344
:100CA0000201E0916407F0916507908180916E07E1
:100CB00089238083E0916407F0916507908180919A
:100CC0006A07892B8083E0916207F0916307908126
:100CD00080916907892B80838EB18F7C80628EB969
:100CE000739AA59880910201877E8093020180917A
:100CF0000201806680930201E0916407F09165072C
:100D0000908180916E0789238083E0916407F09140
:100D10006507908180916A07892B80838EB18F7CD3
:100D200080628EB9739AA59880910201877E809324
:100D3000020180910201806680930201E0916407C4
:100D4000F0916507908180916E0789238083E091FF
:100D50006407F0916507908180916A07892B8083F1
:100D6000E0916207F0916307908180916D0789237C
:100D700080838EB18F7C80618EB97398A5988091A5
:100D80000201886180930201809102018066809354
:100D90000201E0916407F0916507908180916E07F0
:100DA00089238083E0916407F091650790818091A9
:100DB0006A07892B8083E0916207F0916307908135
:100DC00080916907892B80838EB18F7C8EB973984F
:100DD000A5988091020188618093020180910201AF
:100DE0008F7980930201E0916407F091650790810B
:100DF00080916E0789238083E0916407F0916507F5
:100E0000908180916A07892B8083E0916207F0913D
:100E10006307908180916D07892380838EB18F7CD9
:100E200080618EB9739AA59A80910201877E809322
:100E30000201809102018F79806480930201E09128
:100E40006407F0916507908180916E078923808304
:100E5000E0916407F0916507908180916A07892B82
:100E60008083E0916207F091630790818091690728
:100E7000892B80838EB18F7C80628EB97398A59800
:100E800080910201877E80930201809102018F7917
:100E900080930201E0916407F09165079081809151
:100EA0006E0789238083E0916407F0916507908144
:100EB00080916A07892B8083E0916207F091630734
:100EC000908180916D07892380838EB18F7C8062B1
:100ED0008EB9739AA59A80910201877E8093020150
:100EE000809102018F79806480930201E091640710
:100EF000F0916507908180916E0789238083E0914E
:100F00006407F0916507908180916A07892B80833F
:100F1000E0916207F0916307908180916907892BC6
:100F200080838EB18F7C80618EB97398A59A8091F1
:100F30000201877E886080930201809102018F798F
:100F4000806280930201E0916407F09165079081CF
:100F500080916E0789238083E0916407F091650793
:100F6000908180916A07892B8083E0916207F091DC
:100F70006307908180916D07892380838EB18F7C78
:100F80008EB97398A59880910201877E80930201A3
:100F9000809102018F7980930201E0916407F091C2
:100FA0006507908180916E0789238083E0916407B3
:100FB000F0916507908180916A07892B80838EB1BB
:100FC0008F7C8EB9739AA59A80910201877E806189
:100FD00080930201809102018F79806280930201E7
:100FE000E0916407F0916507908180916E078923F5
:100FF0008083E0916407F0916507908180916A0792
:10100000892B8083E0916207F09163079081809142
:101010006907892B80838EB18F7C8EB97398A598D0
:1010200080910201877E80930201809102018F7975
:1010300080930201E0916407F091650790818091AF
:101040006E0789238083E0916407F09165079081A2
:1010500080916A07892B80838EB18F7C80628EB9E4
:101060007398A59A80910201877E809302018091F6
:101070000201806680930201E0916407F0916507A8
:10108000908180916E0789238083E0916407F091BD
:101090006507908180916A07892B8083E0916207C0
:1010A000F0916307908180916D07892380838EB1D1
:1010B0008F7C80618EB9739AA59A80910201877E98
:1010C0008061809302018091020180668093020119
:1010D000E0916407F0916507908180916E07892304
:1010E0008083E0916407F0916507908180916A07A1
:1010F000892B8083E0916207F09163079081809152
:101100006907892B80838EB18F7C80618EB973983B
:10111000A59880910201877E80930201809102014F
:10112000806680930201E0916407F09165079081E9
:1011300080916E0789238083E0916407F0916507B1
:10114000908180916A07892B8083E0916207F091FA
:101150006307908180916D07892380838EB18F7C96
:101160008EB97398A59A80910201877E80930201BF
:10117000809102018F79806280930201E09164077F
:10118000F0916507908180916E0789238083E091BB
:101190006407F0916507908180916A07892B8083AD
:1011A000E0916207F0916307908180916907892B34
:1011B00080838EB18F7C8EB97398A598809102013F
:1011C000877E80930201809102018F7980930201D2
:1011D000E0916407F0916507908180916E07892303
:1011E0008083E0916407F0916507908180916A07A0
:1011F000892B808366E970E080E090E00E94B32A4A
:10120000E0916207F0916307908180916D078923D7
:1012100080838EB18F7C80628EB9739AA5988091FD
:101220000201877E80930201809102018F798062A2
:1012300080930201E0916407F091650790818091AD
:101240006E0789238083E0916407F09165079081A0
:1012500080916A07892B8083E0916207F091630790
:10126000908180916907892B80838EB18F7C8EB9A4
:101270007398A59880910201877E809302018091E6
:1012800002018F7980930201E0916407F091650774
:10129000908180916E0789238083E0916407F091AB
:1012A0006507908180916A07892B808364EF71E0E4
:1012B00080E090E00E94B32A0FE311E02FEE30E0CF
:1012C00040E050E060E070E088E497E0FAD481E02C
:1012D00080935D0780914E0790914F07909351073F
:1012E0008093500780914C0790914D07909353073E
:1012F00080935207E0916007F0916107908180919F
:101300006C078923808380915F078111D1C0E091B0
:101310005D07E150E33040F4F0E0EE0FFF1FED5DBC
:10132000FD4F4081518102C040E350E1E0916207EE
:10133000F0916307908180916D07892380838EB13E
:101340008F7C8EB97398A59880910201877E8093D7
:101350000201809102018F7980930201E09164077C
:10136000F0916507908180916E0789238083E091D9
:101370006407F0916507908180916A07892B8083CB
:101380008EB18F7C8EB97398A59880910201877E6B
:101390008093020180910201806680930201E091B6
:1013A0006407F0916507908180916E07892380839F
:1013B000E0916407F0916507908180916A07892B1D
:1013C0008083E0916207F0916307908180916907C3
:1013D000892B80839EB19F7C9EB97398A59A90912A
:1013E0000201977E90930201909102019F79909360
:1013F0000201E0916407F0916507808190916E078A
:1014000098239083E0916407F09165078081909123
:101410006A07982B90832EB1CA019927AC01440F1B
:10142000551F440F551F40732F7C242B2EB92EB10E
:10143000AC0155954795559547954870277F242BC6
:101440002EB924B3880F991F8072922F9F7D892B0C
:1014500084BB80910201877E80930201809102010A
:101460008F7980930201E0916407F0916507908184
:1014700080916E0789238083E0916407F09165076E
:10148000908180916A07892B808300915207109187
:1014900053070150110920915007309151072150F5
:1014A000310940E050E060E070E088E497E009D462
:1014B00080915F07813009F077C0E0915D07E150CE
:1014C000E33028F4F0E0EF58FD4F808101C080E068
:1014D000E0916207F0916307208190916D0792235C
:1014E00090839EB19F7C90619EB97398A59A9091CC
:1014F0000201977E90930201909102019F7990647E
:1015000090930201E0916407F0916507208190912A
:101510006E0792239083E0916407F0916507208124
:1015200090916A07922B9083E0916207F091630794
:10153000208190916907922B90832EB190E02F7CAF
:101540002EB92EB1AC0155954795559547954870E4
:10155000277F242B2EB9A59820910201B3E0959501
:101560008795BA95E1F78871922F977E892B8093A2
:101570000201809102018F7980930201E09164075A
:10158000F0916507908180916E0789238083E091B7
:101590006407F0916507908180916A07892B8083A9
:1015A00088E497E00E949C3380915F07823009F0C5
:1015B00095C080915D07813089F060F0823031F014
:1015C000833079F4E8E2CE2ED12C0BC0F8E4CF2E94
:1015D000D12C07C078E8C72ED12C03C068EEC62EE8
:1015E000D12CE0916207F0916307908180916D07A3
:1015F000892380838EB18F7C80618EB9739AA59A7E
:1016000080910201877E80930201809102018F798F
:10161000806480930201E0916407F09165079081F6
:1016200080916E0789238083E0916407F0916507BC
:10163000908180916A07892B8083E0916207F09105
:101640006307908180916907892B80838EB18F7C9D
:1016500080628EB98EB1960136952795369527957D
:101660002870877F822B8EB9A59880910201960100
:1016700053E0369527955A95E1F7922F9871877E1A
:10168000C92EC82AC0920201809102018F798093ED
:101690000201E0916407F0916507908180916E07E7
:1016A00089238083E0916407F091650790818091A0
:1016B0006A07892B8083409152075091530741500C
:1016C000510960915007709151076150710900E014
:1016D00010E020E030E088E497E0F3D280915F07EB
:1016E000833009F093C080915D07813081F058F01C
:1016F000823031F0833071F420E6E22EF12C0AC002
:10170000E12CF12C07C090ECE92EF12C03C080EA0B
:10171000E82EF12CE0916207F091630790818091AF
:101720006D07892380838EB18F7C80618EB9739A17
:10173000A59A80910201877E809302018091020127
:101740008F79806480930201E0916407F0916507CE
:10175000908180916E0789238083E0916407F091E6
:101760006507908180916A07892B8083E0916207E9
:10177000F0916307908180916907892B80838EB1F6
:101780008F7C8EB98EB19701369527953695279522
:101790002870877F822B8EB9A598809102019701CE
:1017A00003E0369527950A95E1F7922F9871877E89
:1017B000E92EE82AE0920201809102018F7980935C
:1017C0000201E0916407F0916507908180916E07B6
:1017D00089238083E0916407F0916507908180916F
:1017E0006A07892B8083009152071091530701509B
:1017F000110920915007309151072150310940E0E3
:1018000050E060E070E088E497E05BD26FEF7FEF3C
:1018100088E497E00E94C93061E084E30E94582A7E
:1018200061E082E30E94582A61E08EE20E94582A19
:1018300061E080E30E94582A64EE74E083E096E061
:101840000E94EE2F0E94FA2DAB01BC0177FF05C06C
:1018500083E096E00E94C62F05C02AE083E096E070
:101860000E94162F6AEB73E083E096E00E947D26CB
:101870008CEE99E6ABE6B4E480937A0790937B070D
:10188000A0937C07B0937D070E947B2E8091450733
:10189000803308F052C061E08DE00E94582A8091A8
:1018A0004507E82FF0E09F01220F331FE20FF31FDF
:1018B000EC54F94F9081907C9D6090831092460784
:1018C000109247076CE00E948F539CE0899FB00103
:1018D000112440E050E09B01240F351FF901EE0F69
:1018E000FF1F2E0F3F1FF901EC54F94F908196FD19
:1018F00017C04F5F5F4F4C30510569F7813009F0D9
:10190000B4C11092800082E0809381001092850023
:1019100010928400B19A80916F00826080936F0072
:10192000E0914507F0E0CF01880F991FE80FF91FFC
:10193000EC54F94F80818064808382E690E00E94BD
:10194000762D64EF71E080E090E00E94B32A82E699
:1019500090E00E94762D0E945F2F82E1E1E1F2E0AB
:10196000DE01119601900D928A95E1F78FE090E0EB
:101970009C8B8B8B412C512C3201812C912C54014E
:1019800050EE252E57E0352EC501B40128E131E097
:1019900040E050E00E942C5269017A0180E590E01D
:1019A00090935507809354078EE190E090935707EA
:1019B0008093560798E090935C07F901EE0FFF1FA4
:1019C00081E090E08C0F9D1FE80FF91F00811181CD
:1019D00010935B0700935A07109359070093580719
:1019E00069E075E088E497E00E94EE2F88E790E0D8
:1019F00090935507809354078EE190E0909357079A
:101A00008093560798E090935C078FEFC81AD80A26
:101A1000CC0CDD1CE1E0F0E0EC0FFD1FEC0DFD1D3A
:101A2000E080F180F0925B07E0925A07F09259074C
:101A3000E092580763E175E088E497E00E94EE2F9A
:101A400085EA90E0909355078093540784E190E0F5
:101A5000909357078093560729E0D22ED0925C07C7
:101A600010935B0700935A07109359070093580788
:101A700063E175E088E497E00E94EE2F87ED90E047
:101A8000909355078093540784E190E09093570713
:101A900080935607D0925C07F0925B07E0925A075A
:101AA000F0925907E09258076EE274E088E497E0FC
:101AB0000E94EE2F84E190E09093550780935407A5
:101AC00082E890E0909357078093560713E01093B5
:101AD0005C0710925B0710925A07109259071092F8
:101AE00058076BE075E088E497E00E94EE2F84E1F0
:101AF00090E0909355078093540780EA90E090938C
:101B000057078093560710935C0710925B0710925B
:101B10005A07109259071092580765E175E088E45A
:101B200097E00E94EE2F88EC90E090935507809309
:101B3000540786E990E0909357078093560734E066
:101B4000D32ED0925C0730925B0720925A073092D6
:101B5000590720925807C301B20128E131E040E063
:101B600050E00E942C52B90188E497E00E94B31A19
:101B7000EE24EA94FE2C08E210E02BE430E042E987
:101B800050E063EC70E088E497E00E944A3283E121
:101B900091E0909355078093540786E990E09093E5
:101BA000570780935607D0925C0730925B072092CC
:101BB0005A0730925907209258076DE175E088E482
:101BC00097E00E94EE2F8B899C8990935507809314
:101BD000540788EC90E09093570780935607D09273
:101BE0005C0730925B0720925A0730925907209287
:101BF000580762EE74E088E497E00E94EE2F90EAC6
:101C0000890E911CA11CB11C80ED480E87E0581E66
:101C1000611C711C8B899C8944969C8B8B8B90ECEE
:101C2000891698E09906A104B10409F0ADCE6FEFD2
:101C30007FEF88E497E064960FB6F894DEBF0FBE9E
:101C4000CDBFDF91CF911F910F91FF90EF90DF906B
:101C5000CF90BF90AF909F908F907F906F905F904C
:101C60004F903F902F900C94C930823061F41092C5
:101C7000900080939100109295001092940088BB80
:101C8000809371004DCE833069F41092A00082E001
:101C90008093A1001092A5001092A40089BB8093AC
:101CA00072003ECE81113CCE1092200182E08093E2
:101CB000210110922501109224018ABB80937300A8
:101CC0002FCECF92DF92EF92FF920F931F93CF937D
:101CD000DF93EC017A016901E88DF98D90818CA187
:101CE000892380838F898111E9C48D89823081F0B5
:101CF000833019F1813071F5EFEEF0E09F01201B88
:101D0000310BCB01E41BF50B86016F017B0113C086
:101D10008FEE90E09C012C193D096C01C61AD70A80
:101D20008FE391E0AC01401B510B8C010E191F0990
:101D3000C801F6017A01B9010FC08FE391E09C015F
:101D40002C193D09861B970BFA0168018C01BA0119
:101D5000790102C0CA01FB01AA8DBB8D3C912DA166
:101D600023232C932EB12F7C2EB97398A598209104
:101D70000201277E20930201209102012F792093F6
:101D80000201AC8DBD8D3C912EA123232C93AC8DF3
:101D9000BD8D3C912AA1232B2C932EB12F7C2EB9E3
:101DA0007398A59A20910201277E28602093020152
:101DB000209102012F7920930201AC8DBD8D3C91C1
:101DC0002EA123232C93AC8DBD8D3C912AA1232BD6
:101DD0002C93AA8DBB8D3C9129A1232B2C934EB122
:101DE000272F3327D901AA0FBB1FAA0FBB1FA07330
:101DF0004F7C4A2B4EB94EB1D901B595A795B595F3
:101E0000A795A870477F4A2B4EB944B3D901AA0FB2
:101E1000BB1FA0724F7D4A2B44BB40910201D901E8
:101E200053E0B595A7955A95E1F7A871477E4A2BDF
:101E30004093020140910201A5E0220F331FAA95B1
:101E4000E1F72076342F3F79232B20930201AC8DCC
:101E5000BD8D3C912EA123232C93AC8DBD8D3C9147
:101E60002AA1232B2C934EB19B013327B901660F76
:101E7000771F660F771F60734F7C462B4EB94EB1AC
:101E8000B90175956795759567956870477F462B7D
:101E90004EB944B3B901660F771F60724F7D462B70
:101EA00044BB40910201B901B3E075956795BA95BD
:101EB000E1F76871477E462B409302016091020171
:101EC00045E0220F331F4A95E1F720766F79262BE4
:101ED00020930201AC8DBD8D3C912EA123232C9328
:101EE000AC8DBD8D3C912AA1232B2C93AA8DBB8D4B
:101EF0003C912DA123232C932EB12F7C2EB97398C6
:101F0000A59820910201277E2093020120910201D1
:101F10002F7920930201AC8DBD8D3C912EA12323FE
:101F20002C93AC8DBD8D3C912AA1232B2C932EB1EB
:101F30002F7C2EB97398A59A20910201277E2860E4
:101F400020930201209102012F7920622093020147
:101F5000AC8DBD8D3C912EA123232C93AC8DBD8DDA
:101F60003C912AA1232B2C93AA8DBB8D3C9129A1B6
:101F7000232B2C934EB12D2D3327B901660F771FDC
:101F8000660F771F60734F7C462B4EB94EB1B90177
:101F900075956795759567956870477F462B4EB91F
:101FA00044B3B901660F771F60724F7D462B44BB67
:101FB00040910201B901A3E075956795AA95E1F7F3
:101FC0006871477E462B4093020140910201B5E0C3
:101FD000220F331FBA95E1F72076342F3F79232B58
:101FE00020930201AC8DBD8D3C912EA123232C9317
:101FF000AC8DBD8D3C912AA1232B2C932EB1DD24D9
:10200000A601440F551F440F551F40732F7C242BEE
:102010002EB92EB1A601559547955595479548700F
:10202000277F242B2EB924B3A601440F551F4072DD
:102030002F7D242B24BB20910201A601A3E05595FE
:102040004795AA95E1F74871277E242B209302013A
:1020500020910201A601B5E0440F551FBA95E1F7A2
:10206000342F30762F79C32EC22AC0920201AC8D54
:10207000BD8D3C912EA123232C93AC8DBD8D3C9125
:102080002AA1232B2C93AA8DBB8D3C912DA1232318
:102090002C932EB12F7C2EB97398A5982091020114
:1020A000277E20930201209102012F7920930201C3
:1020B000AC8DBD8D3C912EA123232C93AC8DBD8D79
:1020C0003C912AA1232B2C932EB12F7C2EB97398EF
:1020D000A59A20910201277E286020930201209179
:1020E00002012F79206420930201AC8DBD8D3C91BB
:1020F0002EA123232C93AC8DBD8D3C912AA1232BA3
:102100002C93AA8DBB8D3C9129A1232B2C934EB1EE
:102110002F2D3327B901660F771F660F771F607366
:102120004F7C462B4EB94EB1B901759567957595A3
:1021300067956870477F462B4EB944B3B901660F67
:10214000771F60724F7D462B44BB40910201B9015D
:1021500053E0759567955A95E1F76871477E462B70
:10216000409302014091020165E0220F331F6A95FE
:10217000E1F72076342F3F79232B20930201AC8D99
:10218000BD8D3C912EA123232C93AC8DBD8D3C9114
:102190002AA1232B2C934EB197013327B901660F47
:1021A000771F660F771F60734F7C462B4EB94EB179
:1021B000B90175956795759567956870477F462B4A
:1021C0004EB944B3B901660F771F60724F7D462B3D
:1021D00044BB40910201B901A3E075956795AA95AA
:1021E000E1F76871477E462B40930201409102015E
:1021F000B5E0220F331FBA95E1F720764F79242BF3
:1022000020930201AC8DBD8D3C912EA123232C93F4
:10221000AC8DBD8D3C912AA1232B2C93AA8DBB8D17
:102220003C912DA123232C932EB12F7C2EB9739892
:10223000A59820910201277E20930201209102019E
:102240002F7920930201AC8DBD8D3C912EA12323CB
:102250002C93AC8DBD8D3C912AA1232B2C932EB1B8
:102260002F7C2EB97398A59A20910201277E2860B1
:102270002093020120910201206620930201AC8D7F
:10228000BD8D3C912EA123232C93AC8DBD8D3C9113
:102290002AA1232B2C93AA8DBB8D3C9129A1232B02
:1022A0002C934EB1212F3327B901660F771F660F8C
:1022B000771F60734F7C462B4EB94EB1B9017595AF
:1022C0006795759567956870477F462B4EB944B3FF
:1022D000B901660F771F60724F7D462B44BB40915A
:1022E0000201B90153E0759567955A95E1F7687158
:1022F000477E462B409302014091020165E0220F88
:10230000331F6A95E1F72076342F3F79232B2093F2
:102310000201AC8DBD8D3C912EA123232C93AC8D5D
:10232000BD8D3C912AA1232B2C932EB11127A801FE
:10233000440F551F440F551F40732F7C242B2EB97B
:102340002EB1A80155954795559547954870277F1B
:10235000242B2EB924B3A801440F551F40722F7DA2
:10236000242B24BB20910201A80133E05595479509
:102370003A95E1F74871277E242B209302012091A2
:10238000020145E0000F111F4A95E1F700762F7911
:10239000022B00930201AC8DBD8D3C912EA1232315
:1023A0002C93AC8DBD8D3C912AA1232B2C93AA8D0F
:1023B000BB8D3C912DA123232C932EB12F7C2EB9C4
:1023C0007398A59820910201277E20930201209105
:1023D00002012F7920930201AC8DBD8D3C912EA17D
:1023E00023232C93AC8DBD8D3C912AA1232B2C93C0
:1023F0002EB12F7C2EB9739AA59820910201277EC9
:1024000020930201209102012F7920930201AC8DCB
:10241000BD8D3C912EA123232C93AC8DBD8D3C9181
:102420002AA1232B2C93AA8DBB8D3C9129A1232B70
:102430002C934EB12F2F3327B901660F771F660FEC
:10244000771F60734F7C462B4EB94EB1B90175951D
:102450006795759567956870477F462B4EB944B36D
:10246000B901660F771F60724F7D462B44BB4091C8
:102470000201B90103E0759567950A95E1F7687166
:10248000477E462B409302014091020155E0220F06
:10249000331F5A95E1F72076342F3F79232B209371
:1024A0000201AC8DBD8D3C912EA123232C93AC8DCC
:1024B000BD8D3C912AA1232B2C932EB1FF27AF0178
:1024C000440F551F440F551F40732F7C242B2EB9EA
:1024D0002EB1AF0155954795559547954870277F83
:1024E000242B2EB924B3AF01440F551F40722F7D0A
:1024F000242B24BB20910201AF01B3E055954795F1
:10250000BA95E1F74871277E242B20930201209190
:10251000020115E0EE0FFF1F1A95E1F7E0762F7923
:10252000E22BE0930201EC8DFD8D30812EA123235F
:102530002083EC8DFD8D30812AA1232B2083EA8D11
:10254000FB8D30812DA1232320832EB12F7C2EB92A
:102550007398A59820910201277E20930201209173
:1025600002012F7920930201EC8DFD8D30812EA187
:1025700023232083EC8DFD8D30812AA1232B208302
:102580002EB12F7C2EB9739AA59820910201277E37
:1025900020930201209102012F79206220930201F1
:1025A000EC8DFD8D30812EA123232083EC8DFD8DBC
:1025B00030812AA1232B2083EA8DFB8D308129A134
:1025C000232B20834EB1292F3327B901660F771FA4
:1025D000660F771F60734F7C462B4EB94EB1B90121
:1025E00075956795759567956870477F462B4EB9C9
:1025F00044B3B901660F771F60724F7D462B44BB11
:1026000040910201B901A3E075956795AA95E1F79C
:102610006871477E462B4093020140910201B5E06C
:10262000220F331FBA95E1F72076342F3F79232B01
:1026300020930201EC8DFD8D30812EA12323208378
:10264000EC8DFD8D30812AA1232B20832EB199277B
:10265000AC01440F551F440F551F40732F7C242B92
:102660002EB92EB1AC0155954795559547954870B3
:10267000277F242B2EB924B3AC01440F551F407281
:102680002F7D242B24BB20910201AC0163E05595E2
:1026900047956A95E1F74871277E242B2093020124
:1026A0002091020175E0880F991F7A95E1F78076F5
:1026B000922F9F79892B8093020155C3813009F0B5
:1026C0005FC3EA8DFB8D90818DA1892380838EB1BC
:1026D0008F7C8EB97398A59880910201877E809334
:1026E0000201809102018F79806480930201EC8D58
:1026F000FD8D90818EA189238083EC8DFD8D90814D
:102700008AA1892B8083EA8DFB8D908189A1892BF9
:1027100080832EB1872F9927AC01440F551F440F9A
:10272000551F40732F7C242B2EB92EB1AC0155952B
:102730004795559547954870277F242B2EB924B38C
:10274000AC01440F551F40722F7D242B24BB2091D8
:102750000201AC01B3E055954795BA95E1F7487190
:10276000277E242B209302012091020135E0880F5F
:10277000991F3A95E1F78076922F9F79892B809364
:102780000201EC8DFD8D90818EA189238083EC8DDB
:10279000FD8D90818AA1892B8083EA8DFB8D9081AC
:1027A0008DA1892380838EB18F7C8EB97398A59873
:1027B00080910201877E80930201809102018066F0
:1027C00080930201EC8DFD8D90818EA18923808301
:1027D000EC8DFD8D90818AA1892B8083EA8DFB8D04
:1027E000908189A1892B80838EB19B013327A90118
:1027F000440F551F440F551F40738F7C842B8EB997
:102800008EB1A90155954795559547954870877F95
:10281000842B8EB984B3A901440F551F40728F7D5C
:10282000842B84BB80910201A901F3E05595479563
:10283000FA95E1F74871877E842B809302016091BD
:102840000201A5E0220F331FAA95E1F720766F79E8
:10285000262B20930201EC8DFD8D90818EA1892382
:102860008083EC8DFD8D90818AA1892B8083EA8DF8
:10287000FB8D90818DA1892380838EB18F7C8061B7
:102880008EB97398A59880910201877E809302018A
:10289000809102018F79806480930201EC8DFD8D1F
:1028A00090818EA189238083EC8DFD8D90818AA1FA
:1028B000892B8083EA8DFB8D908189A1892B808370
:1028C0002EB18F2D9927AC01440F551F440F551F72
:1028D00040732F7C242B2EB92EB1AC015595479512
:1028E000559547954870277F242B2EB924B3AC010A
:1028F000440F551F40722F7D242B24BB20910201D1
:10290000AC01E3E055954795EA95E1F74871277EDC
:10291000242B2093020120910201F5E0880F991FDA
:10292000FA95E1F78076922F9F79892B80930201A7
:10293000EC8DFD8D90818EA189238083EC8DFD8DA2
:1029400090818AA1892B8083EA8DFB8D90818DA156
:10295000892380838EB18F7C80618EB97398A5980E
:1029600080910201877E809302018091020180663E
:1029700080930201EC8DFD8D90818EA1892380834F
:10298000EC8DFD8D90818AA1892B8083EA8DFB8D52
:10299000908189A1892B80838EB197013327A9016A
:1029A000440F551F440F551F40738F7C842B8EB9E5
:1029B0008EB1A90155954795559547954870877FE4
:1029C000842B8EB984B3A901440F551F40728F7DAB
:1029D000842B84BB80910201A90163E05595479542
:1029E0006A95E1F74871877E842B809302014091BC
:1029F000020175E0220F331F7A95E1F720764F79B7
:102A0000242B20930201EC8DFD8D90818EA18923D2
:102A10008083EC8DFD8D90818AA1892B8083EA8D46
:102A2000FB8D90818DA1892380838EB18F7C806105
:102A30008EB97398A59880910201877E80930201D8
:102A4000809102018F7980930201EC8DFD8D908140
:102A50008EA189238083EC8DFD8D90818AA1892BA5
:102A60008083EA8DFB8D908189A1892B80832EB193
:102A70008D2D9927AC01440F551F440F551F4073EE
:102A80002F7C242B2EB92EB1AC0155954795559529
:102A900047954870277F242B2EB924B3AC01440FEF
:102AA000551F40722F7D242B24BB20910201AC01C5
:102AB00033E0559547953A95E1F74871277E242BE9
:102AC000209302012091020145E0880F991F4A9549
:102AD000E1F78076922F9F79892B80930201EC8D0C
:102AE000FD8D90818EA189238083EC8DFD8D908159
:102AF0008AA1892B8083EA8DFB8D90818DA189230A
:102B000080838EB18F7C80618EB97398A5988091F7
:102B10000201877E80930201809102018F79806299
:102B200080930201EC8DFD8D90818EA1892380839D
:102B3000EC8DFD8D90818AA1892B8083EA8DFB8DA0
:102B4000908189A1892B80838EB1DD249601220F8B
:102B5000331F220F331F20738F7C822B8EB98EB1CF
:102B6000960135952795359527952870877F822B77
:102B70008EB984B39601220F331F20728F7D822B72
:102B800084BB809102019601E3E035952795EA9593
:102B9000E1F72871877E822B809302012091020148
:102BA000C601F5E0880F991FFA95E1F780762F7935
:102BB000C82EC22AC0920201EC8DFD8D90818EA19B
:102BC00089238083EC8DFD8D90818AA1892B808360
:102BD000EA8DFB8D90818DA1892380838EB18F7CBE
:102BE00080628EB97398A59880910201877E809348
:102BF0000201809102018F7980930201EC8DFD8D9D
:102C000090818EA189238083EC8DFD8D90818AA196
:102C1000892B8083EA8DFB8D908189A1892B80830C
:102C20002EB1812F9927AC01440F551F440F551F1A
:102C300040732F7C242B2EB92EB1AC0155954795AE
:102C4000559547954870277F242B2EB924B3AC01A6
:102C5000440F551F40722F7D242B24BB209102016D
:102C6000AC0173E0559547957A95E1F74871277E59
:102C7000242B2093020120910201E5E0880F991F87
:102C8000EA95E1F78076922F9F79892B8093020154
:102C9000EC8DFD8D90818EA189238083EC8DFD8D3F
:102CA00090818AA1892B8083EA8DFB8D90818DA1F3
:102CB000892380838EB18F7C80628EB97398A598AA
:102CC00080910201877E80930201809102018F79B9
:102CD000806280930201EC8DFD8D90818EA189230D
:102CE0008083EC8DFD8D90818AA1892B8083EA8D74
:102CF000FB8D908189A1892B80838EB1112798014A
:102D0000220F331F220F331F20738F7C822B8EB92B
:102D10008EB1980135952795359527952870877F31
:102D2000822B8EB984B39801220F331F20728F7DBE
:102D3000822B84BB80910201980193E03595279501
:102D40009A95E1F72871877E822B8093020120916A
:102D5000020135E0000F111F3A95E1F700762F7957
:102D6000022B00930201EC8DFD8D90818EA18923B1
:102D70008083EC8DFD8D90818AA1892B80832FC06B
:102D80008250823060F5CB01770FAA0BBB0BDC01C0
:102D900099278827A601DD0C660B770B9A01AB01FA
:102DA000282B392B4A2B5B2B6AE2CE010E94EA2B9F
:102DB000C701FF0CAA0BBB0BBC0155274427012EF2
:102DC000000C220B330BD901C801842B952BA62BA9
:102DD000B72B9C01AD016BE2CE010E94EA2BE88D7E
:102DE000F98D908188A1892B8083DF91CF911F91EC
:102DF0000F91FF90EF90DF90CF900895FC01A08994
:102E0000B18982E08C93A485B5851C92A685B7858F
:102E100080E18C93108EA489B58986E08C93A28979
:102E2000B3898C9180618C93A289B3898C918860DD
:102E30008C93A289B3898C9180688C930288F389E2
:102E4000E02D80818F7D808308956F927F928F9295
:102E50009F92AF92BF92CF92DF92EF92FF920F9329
:102E60001F93CF93DF93FC0149015A017B01A08D91
:102E7000B18D9C9184A189238C93A28DB38D9C915B
:102E800085A189238C938789823001F181111CC02F
:102E90008EB18F7C8EB97398A59880910201877E40
:102EA00080930201809102018F7980930201A48DA9
:102EB000B58D9C9186A189238C93A48DB58D9C9111
:102EC00082A1892B8C9310C0833071F48EB1806302
:102ED0008EB9739AA59880910201877E8093020132
:102EE000809102018F790EC08EB18F7C8EB9739A5A
:102EF000A59880910201877E809302018091020152
:102F00008F79806480930201A48DB58D9C9186A1F8
:102F100089238C93A48DB58D9C9182A1892B8C9350
:102F2000A28DB38D9C9181A1892B8C932EB1872F7B
:102F300090E0AC01440F551F440F551F342F3073E0
:102F4000C32E2F7C232B2EB92EB1AC01559547955E
:102F500055954795A42FA870DA2E277F2A2B2EB9D6
:102F600024B3AC01440F551FD42FD0722F7D2D2BCD
:102F700024BB20910201AC0113E0559547951A95A9
:102F8000E1F7C42FC871277E2C2B209302012091DA
:102F9000020105E0880F991F0A95E1F78076922FCC
:102FA0009F79982B90930201A48DB58D2C9196A1B9
:102FB00092239C93A48DB58D2C9192A1922B9C93DE
:102FC0009EB1AB0155279A01220F331F220F331FE9
:102FD000B22FB0737B2E9F7C9B2B9EB99EB19A0122
:102FE0003595279535952795622F6870662E977FC2
:102FF000962B9EB994B39A01220F331F722F7072D1
:103000009F7D972B94BB209102018A01B3E0159517
:103010000795BA95E1F7902F9871277E292B209379
:1030200002012091020115E0440F551F1A95E1F7A6
:10303000642F60762F79262B20930201448D558DC5
:10304000DA013C9126A123232C93448D558DDA017E
:103050003C9122A1232B2C93A501940121503109ED
:103060004109510949015A0106E0B694A794979481
:1030700087940A95D1F78401FE1009C20150110905
:1030800008F465C080E1A48DB58D6C9196A196235E
:103090009C93A48DB58D6C9192A1962B9C93A48D3D
:1030A000B58D6C9196A196239C93A48DB58D6C9152
:1030B00092A1962B9C93A48DB58D6C9196A196238D
:1030C0009C93A48DB58D6C9192A1962B9C93A48D0D
:1030D000B58D6C9196A196239C93A48DB58D6C9122
:1030E00092A1962B9C93A48DB58D6C9196A196235D
:1030F0009C93A48DB58D6C9192A1962B9C93A48DDD
:10310000B58D6C9196A196239C93A48DB58D6C91F1
:1031100092A1962B9C93A48DB58D6C9196A196232C
:103120009C93A48DB58D6C9192A1962B9C93A48DAC
:10313000B58D6C9196A196239C93A48DB58D6C91C1
:1031400092A1962B9C93815009F09DCF97CF2F731E
:10315000215008F4F3C1A48DB58D9C9186A18923DB
:103160008C93A48DB58D9C9182A1892B8C93A48D79
:10317000B58D9C9186A189238C93A48DB58D9C914E
:1031800082A1892B8C93E4CFFEB0BF2DBF7CFB2E98
:10319000FC28FEB8FEB0AF2DA77FFA2EFD28FEB8A2
:1031A000F4B2BF2DBF7DFB2EFD2AF4BAF0900201D0
:1031B000AF2DA77EFA2EFC2AF0920201F0900201B8
:1031C000BF2DBF79FB2EF82AF0920201E48CF58C1A
:1031D000D7019C90A6A0A920AC92E48CF58CD701D5
:1031E0009C90A2A0A928AC92FEB0BF2DBF7CFB2E64
:1031F000F728FEB8FEB0AF2DA77FFA2EF628FEB84E
:10320000F4B2BF2DBF7DFB2EF72AF4BAF090020175
:10321000AF2DA77EFA2EF92AF0920201F09002015A
:10322000BF2DBF79FB2EF62AF0920201E48CF58CBB
:10323000D7019C90A6A0A920AC92E48CF58CD70174
:103240009C90A2A0A928AC92FEB0BF2DBF7CFB2E03
:10325000FC28FEB8FEB0AF2DA77FFA2EFD28FEB8E1
:10326000F4B2BF2DBF7DFB2EFD2AF4BAF09002010F
:10327000AF2DA77EFA2EFC2AF0920201F0900201F7
:10328000BF2DBF79FB2EF82AF0920201E48CF58C59
:10329000D7019C90A6A0A920AC92E48CF58CD70114
:1032A0009C90A2A0A928AC92FEB0BF2DBF7CFB2EA3
:1032B000F728FEB8FEB0AF2DA77FFA2EF628FEB88D
:1032C000F4B2BF2DBF7DFB2EF72AF4BAF0900201B5
:1032D000AF2DA77EFA2EF92AF0920201F09002019A
:1032E000BF2DBF79FB2EF62AF0920201E48CF58CFB
:1032F000D7019C90A6A0A920AC92E48CF58CD701B4
:103300009C90A2A0A928AC92FEB0BF2DBF7CFB2E42
:10331000FC28FEB8FEB0AF2DA77FFA2EFD28FEB820
:10332000F4B2BF2DBF7DFB2EFD2AF4BAF09002014E
:10333000AF2DA77EFA2EFC2AF0920201F090020136
:10334000BF2DBF79FB2EF82AF0920201E48CF58C98
:10335000D7019C90A6A0A920AC92E48CF58CD70153
:103360009C90A2A0A928AC92FEB0BF2DBF7CFB2EE2
:10337000F728FEB8FEB0AF2DA77FFA2EF628FEB8CC
:10338000F4B2BF2DBF7DFB2EF72AF4BAF0900201F4
:10339000AF2DA77EFA2EF92AF0920201F0900201D9
:1033A000BF2DBF79FB2EF62AF0920201E48CF58C3A
:1033B000D7019C90A6A0A920AC92E48CF58CD701F3
:1033C0009C90A2A0A928AC92FEB0BF2DBF7CFB2E82
:1033D000FC28FEB8FEB0AF2DA77FFA2EFD28FEB860
:1033E000F4B2BF2DBF7DFB2EFD2AF4BAF09002018E
:1033F000AF2DA77EFA2EFC2AF0920201F090020176
:10340000BF2DBF79FB2EF82AF0920201E48CF58CD7
:10341000D7019C90A6A0A920AC92E48CF58CD70192
:103420009C90A2A0A928AC92FEB0BF2DBF7CFB2E21
:10343000F728FEB8FEB0AF2DA77FFA2EF628FEB80B
:10344000F4B2BF2DBF7DFB2EF72AF4BAF090020133
:10345000AF2DA77EFA2EF92AF0920201F090020118
:10346000BF2DBF79FB2EF62AF0920201E48CF58C79
:10347000D7019C90A6A0A920AC92E48CF58CD70132
:103480009C90A2A0A928AC92BA94B1107DCE015014
:10349000110918F030E1B32E77CE2F73215008F4C4
:1034A0004DC03EB13F7C3C293EB93EB1377F3D29FE
:1034B0003EB934B33F7D3D2B34BB30910201377EA2
:1034C0003C2B30930201309102013F79382B30932D
:1034D0000201448D558DDA011C9136A131233C93B4
:1034E000448D558DDA011C9132A1312B3C933EB1B4
:1034F0003F7C37293EB93EB1377F36293EB934B3D8
:103500003F7D372B34BB30910201377E392B30930E
:103510000201309102013F79362B30930201448D34
:10352000558DDA011C9136A131233C93448D558D84
:10353000DA011C9132A1312B3C93B0CFA08DB18D1B
:103540009C9180A1892B8C93DF91CF911F910F913A
:10355000FF90EF90DF90CF90BF90AF909F908F90B3
:103560007F906F900895AB01770F660B770B77FD17
:103570000C94C62F2AE00C94162FEF92FF920F9313
:103580001F93CF93DF93EC01790177FDF0C557FDD1
:10359000EEC588859985681779070CF0E8C58A8596
:1035A0009B85481759070CF0E2C5E88DF98D90818D
:1035B0008CA1892380838F8981116EC28D8982308D
:1035C00059F08330B1F08130D1F48FEE90E0841B5C
:1035D000950BAB01BC0113C08FEE90E09C01261B44
:1035E000370BB9018FE391E09C01241B350BA90136
:1035F00006C08FE391E0861B970BBA01AC01EA8D00
:10360000FB8D90818DA1892380838EB18F7C8EB9B3
:103610007398A59880910201877E80930201809122
:1036200002018F7980930201EC8DFD8D90818EA136
:1036300089238083EC8DFD8D90818AA1892B8083E5
:103640008EB18F7C8EB9739AA59880910201877E86
:1036500080930201809102018F7980930201EC8DA9
:10366000FD8D90818EA189238083EC8DFD8D9081CD
:103670008AA1892B8083EA8DFB8D908189A1892B7A
:1036800080832EB1872F9927FC01EE0FFF1FEE0FCD
:10369000FF1FE0732F7C2E2B2EB92EB1FC01F59568
:1036A000E795F595E795E870277F2E2B2EB924B383
:1036B000FC01EE0FFF1FE0722F7D2E2B24BB20910B
:1036C0000201FC0103E0F595E7950A95E1F7E87141
:1036D000277E2E2B209302012091020135E0880FD6
:1036E000991F3A95E1F78076922F9F79892B8093E5
:1036F0000201EC8DFD8D90818EA189238083EC8D5C
:10370000FD8D90818AA1892B80838EB177279B01C3
:10371000220F331F220F331F20738F7C822B8EB911
:103720008EB19B0135952795359527952870877F14
:10373000822B8EB984B39B01220F331F20728F7DA1
:10374000822B84BB809102019B01B3E035952795C4
:10375000BA95E1F72871877E822B809302018091D0
:10376000020115E0660F771F1A95E1F760768F79F1
:10377000682B60930201EC8DFD8D90818EA18923D1
:103780008083EC8DFD8D90818AA1892B8083EA8DC9
:10379000FB8D90818DA1892380838EB18F7C8EB922
:1037A0007398A59880910201877E80930201809191
:1037B00002018F7980930201EC8DFD8D90818EA1A5
:1037C00089238083EC8DFD8D90818AA1892B808354
:1037D0008EB18F7C8EB9739AA59880910201877EF5
:1037E00080930201809102018F79806280930201AF
:1037F000EC8DFD8D90818EA189238083EC8DFD8DD4
:1038000090818AA1892B8083EA8DFB8D908189A18B
:10381000892B80832EB1852F9927BC01660F771FD6
:10382000660F771F60732F7C262B2EB92EB1BC013B
:1038300075956795759567956870277F262B2EB9C6
:1038400024B3BC01660F771F60722F7D262B24BB2B
:1038500020910201BC01A3E075956795AA95E1F757
:103860006871277E262B2093020120910201B5E08A
:10387000880F991FBA95E1F78076922F9F79892B4F
:1038800080930201EC8DFD8D90818EA18923808330
:10389000EC8DFD8D90818AA1892B80838EB1552777
:1038A0009A01220F331F220F331F20738F7C822B2C
:1038B0008EB98EB19A013595279535952795287043
:1038C000877F822B8EB984B39A01220F331F207217
:1038D0008F7D822B84BB809102019A0163E0359534
:1038E00027956A95E1F72871877E822B80930201E4
:1038F0008091020175E0440F551F7A95E1F74076FB
:103900008F79482B40930201EC8DFD8D90818EA123
:1039100089238083EC8DFD8D90818AA1892B808302
:10392000EA8DFB8D90818DA1892380838EB18F7C60
:103930008EB97398A59880910201877E80930201C9
:10394000809102018F7980930201EC8DFD8D908131
:103950008EA189238083EC8DFD8D90818AA1892B96
:1039600080838EB18F7C8EB9739AA5988091020165
:10397000877E80930201809102018F798064809319
:103980000201EC8DFD8D90818EA189238083EC8DC9
:10399000FD8D90818AA1892B8083EA8DFB8D90819A
:1039A00089A1892B80832EB18F2D9927AC01440FDB
:1039B000551F440F551F40732F7C242B2EB92EB159
:1039C000AC0155954795559547954870277F242B11
:1039D0002EB924B3AC01440F551F40722F7D242B08
:1039E00024BB20910201AC0113E0559547951A952F
:1039F000E1F74871277E242B2093020120910201D8
:103A000005E0880F991F0A95E1F78076922F9F793C
:103A1000892B80930201EC8DFD8D90818EA18923ED
:103A20008083EC8DFD8D90818AA1892B80838EB15E
:103A3000FF249701220F331F220F331F20738F7C27
:103A4000822B8EB98EB1970135952795359527959F
:103A50002870877F822B8EB984B39701220F331F82
:103A600020728F7D822B84BB80910201970163E0DD
:103A7000359527956A95E1F72871877E822B80938B
:103A8000020120910201C70175E0880F991F7A9504
:103A9000E1F78076922F55C3813009F0B2C2ED89EB
:103AA000E150E33028F4F0E0EF58FD4F808101C091
:103AB00080E0EA8DFB8D20819DA1922390839EB1B1
:103AC0009F7C90619EB97398A59A90910201977E10
:103AD00090930201909102019F799064909302016A
:103AE000EC8DFD8D20819EA192239083EC8DFD8D28
:103AF00020819AA1922B9083EA8DFB8D208199A140
:103B0000922B90832EB190E02F7C2EB92EB1FC0128
:103B1000F595E795F595E795E870277F2E2B2EB95B
:103B2000A59820910201B3E095958795BA95E1F7A4
:103B30008871922F977E892B8093020180910201D8
:103B40008F7980930201EC8DFD8D90818EA1892368
:103B50008083EC8DFD8D90818AA1892B8083EA8DF5
:103B6000FB8D90818DA1892380838EB18F7C8EB94E
:103B70007398A59880910201877E809302018091BD
:103B800002018F79806480930201EC8DFD8D90811C
:103B90008EA189238083EC8DFD8D90818AA1892B54
:103BA0008083EA8DFB8D908189A1892B80832EB142
:103BB000872F9927FC01EE0FFF1FEE0FFF1FE07309
:103BC0002F7C2E2B2EB92EB1FC01F595E795F5959E
:103BD000E795E870277F2E2B2EB924B3FC01EE0F5A
:103BE000FF1FE0722F7D2E2B24BB20910201FC01D0
:103BF000B3E0F595E795BA95E1F7E871277E2E2BAE
:103C0000209302012091020115E0880F991F1A9557
:103C1000E1F78076922F9F79892B80930201EC8DBA
:103C2000FD8D90818EA189238083EC8DFD8D908107
:103C30008AA1892B8083EA8DFB8D90818DA18923B8
:103C400080838EB18F7C8EB97398A5988091020184
:103C5000877E809302018091020180668093020139
:103C6000EC8DFD8D90818EA189238083EC8DFD8D5F
:103C700090818AA1892B8083EA8DFB8D908189A117
:103C8000892B80838EB177279B01220F331F220F50
:103C9000331F20738F7C822B8EB98EB19B0135959B
:103CA0002795359527952870877F822B8EB984B309
:103CB0009B01220F331F20728F7D822B84BB80914A
:103CC00002019B01F3E035952795FA95E1F72871FC
:103CD000877E822B8093020180910201A5E0660F0E
:103CE000771FAA95E1F760768F79682B60930201C0
:103CF000EC8DFD8D90818EA189238083EC8DFD8DCF
:103D000090818AA1892B8083EA8DFB8D90818DA182
:103D1000892380838EB18F7C80618EB97398A5983A
:103D200080910201877E80930201809102018F7948
:103D3000806480930201EC8DFD8D90818EA189239A
:103D40008083EC8DFD8D90818AA1892B8083EA8D03
:103D5000FB8D908189A1892B80832EB1852F992796
:103D6000BC01660F771F660F771F60732F7C262BB1
:103D70002EB92EB1BC0175956795759567956870DC
:103D8000277F262B2EB924B3BC01660F771F6072E4
:103D90002F7D262B24BB20910201BC01E3E0759509
:103DA0006795EA95E1F76871277E262B209302013B
:103DB00020910201F5E0880F991FFA95E1F78076CE
:103DC000922F9F79892B80930201EC8DFD8D90813C
:103DD0008EA189238083EC8DFD8D90818AA1892B12
:103DE0008083EA8DFB8D90818DA1892380838EB1A4
:103DF0008F7C80618EB97398A59880910201877E2F
:103E00008093020180910201806680930201EC8D13
:103E1000FD8D90818EA189238083EC8DFD8D908115
:103E20008AA1892B8083EA8DFB8D908189A1892BC2
:103E300080838EB155279A01220F331F220F331F23
:103E400020738F7C822B8EB98EB19A013595279580
:103E5000359527952870877F822B8EB984B39A0178
:103E6000220F331F20728F7D822B84BB8091020131
:103E70009A0103E0359527950A95E1F72871877E29
:103E8000822B809302018091020195E0440F551F1F
:103E90009A95E1F740768F79482B40930201EC8D9B
:103EA000FD8D90818EA189238083EC8DFD8D908185
:103EB0008AA1892B8083EA8DFB8D90818DA1892336
:103EC00080838EB18F7C8EB9739AA5988091020100
:103ED000877E80930201809102018F7980648093B4
:103EE0000201EC8DFD8D90818EA189238083EC8D64
:103EF000FD8D90818AA1892B8083EA8DFB8D908135
:103F000089A1892B80832EB18F2D9927AC01440F75
:103F1000551F440F551F40732F7C242B2EB92EB1F3
:103F2000AC0155954795559547954870277F242BAB
:103F30002EB924B3AC01440F551F40722F7D242BA2
:103F400024BB20910201AC01F3E055954795FA9509
:103F5000E1F74871277E242B209302012091020172
:103F6000A5E0880F991FAA95E1F78076922F9F7997
:103F7000892B80930201EC8DFD8D90818EA1892388
:103F80008083EC8DFD8D90818AA1892B80838EB1F9
:103F9000FF249701220F331F220F331F20738F7CC2
:103FA000822B8EB98EB1970135952795359527953A
:103FB0002870877F822B8EB984B39701220F331F1D
:103FC00020728F7D822B84BB80910201970193E048
:103FD000359527959A95E1F72871877E822B8093F6
:103FE000020180910201970145E0220F331F4A959B
:103FF000E1F7922F90768F79E92EE82AE09202017C
:10400000A4C08250823008F0ACC00A851B850150E4
:1040100011092885398521503109CE010E94610E90
:10402000E88DF98D90818CA189238083EA8DFB8DA9
:1040300090818DA1892380838EB180638EB9739A1C
:10404000A59880910201877E8093020180910201F0
:104050008F7980930201EC8DFD8D90818EA1892353
:104060008083EC8DFD8D90818AA1892B8083EA8DE0
:10407000FB8D908189A1892B80838EB19F2D990F13
:10408000990F90738F7C892B8EB98EB19F2D969549
:1040900096959870877F892B8EB984B39F2D990F41
:1040A00090728F7D892B84BB809102019F2D969504
:1040B000969596959871877E892B809302018091C1
:1040C00002019F2D9295990F90768F79892B80937D
:1040D0000201EC8DFD8D90818EA189238083EC8D72
:1040E000FD8D90818AA1892B80838EB19E2D990FA1
:1040F000990F90738F7C892B8EB98EB1970136956D
:104100002795369527952870877F822B8EB984B3A3
:104110009E2D990F90728F7D892B84BB8091020117
:10412000970143E0369527954A95E1F72871877EF8
:10413000822B80930201909102018E2D8295880F2F
:1041400080769F79892B80930201EC8DFD8D908183
:104150008EA189238083EC8DFD8D90818AA1892B8E
:104160008083E88DF98D908188A1892B8083DF91F0
:10417000CF911F910F91FF90EF90089508952F9286
:104180003F924F925F926F927F928F929F92AF92E7
:10419000BF92CF92DF92EF92FF920F931F93CF9334
:1041A000DF93CDB7DEB72D970FB6F894DEBF0FBE05
:1041B000CDBF9D838C836A30A1F4DC0154962C9191
:1041C00054971E968D919C911F97B8E02B9F800D60
:1041D000911D1124EC81FD819787868715861486B1
:1041E000F1C06D3009F4EEC02C813D813D872C87F4
:1041F000D9011C96CD90DC901D9718968D919C91BD
:104200001997C816D906BCF0EC85FD854489242F82
:1042100030E084859585F6E04F9F800D911D112437
:10422000AC85BD851D969C938E931C9756964C919C
:104230004111A4C0C7C0EC85FD8586849784828522
:1042400093858816990604F7F489F983AF2EB12C6B
:10425000C60126E0F29F800D911D11241816190643
:104260009CF6C50123E0880F991F2A95E1F7880D78
:10427000991D1816190644F6AC85BD8552960D9009
:10428000BC91A02DBD83AC83EC85FD850088F189B0
:10429000E02DFF83EE83F5E06F9FB001112416013E
:1042A0001A829B012C193D0939872887C401089679
:1042B0009B878A879A81953049F0E885F985E20DD8
:1042C000F31DE255FE4FA491AB8301C01B82240174
:1042D0003401BB81B0FF13C0AC85BD85ED91FC916D
:1042E000B981B13031F40084F185E02D2E813F8118
:1042F00019C00288F389E02DEE80FF801EC0EC819A
:10430000FD812E813F81E217F307F1F0AC85BD8579
:10431000ED91FC91B981B13059F40084F185E02D23
:104320002C813D81A301B1018C859D8519950CC01F
:104330000288F389E02DEC80FD8085019501A201C2
:10434000B6018C859D851995EB81E695EB83FFEF92
:104350006F1A7F0A4A0C5B1C2A853B852615370598
:1043600009F0B7CF3A813F5F3A835FEF251A350AEC
:10437000CA0CDB1C363009F09DCF46CF4AEF420312
:10438000B001439F700D1124AC85BD8518964D91E9
:104390005C911997460F571F481759079CF483E003
:1043A000220F331F8A95E1F71E968D919C911F97DE
:1043B000280F391F1F963C932E931E971D961C9213
:1043C0001E921C9781E090E02D960FB6F894DEBF08
:1043D0000FBECDBFDF91CF911F910F91FF90EF9056
:1043E000DF90CF90BF90AF909F908F907F906F9015
:1043F0005F904F903F902F900895EF92FF920F9310
:104400001F93DC011A960D911C911B9718962D9104
:104410003C911997ED91FC910288F389E02D7B0185
:1044200040E050E060E070E019951F910F91FF901F
:10443000EF9008956F927F928F929F92AF92BF926A
:10444000CF92DF92EF92FF920F931F93CF93DF9360
:104450006C015A014801EB013B01620E731EC61547
:10446000D70574F4D601ED91FC910484F585E02D17
:1044700087019401A501BE01C60119952196EFCFD0
:10448000DF91CF911F910F91FF90EF90DF90CF9030
:10449000BF90AF909F908F907F906F900895EF9214
:1044A000FF920F931F93260F371F21503109DC0114
:1044B000ED91FC910284F385E02D78018A01199534
:1044C0001F910F91FF90EF900895EF92FF920F933D
:1044D0001F93240F351F21503109DC01ED91FC9110
:1044E0000284F385E02D780189019B0119951F91C4
:1044F0000F91FF90EF9008956F927F928F929F920D
:10450000AF92BF92CF92DF92EF92FF920F931F93E1
:10451000CF93DF93EC014B015A0169013801E88127
:10452000F9810684F785E02D87011995A501460DCF
:10453000571D41505109E881F9810684F785E02D26
:104540009601B401CE011995E881F9810484F585BD
:10455000E02D9301A501B401CE011995C80CD91C19
:10456000B60161507109E881F9810484F585E02D77
:104570009301A501CE011995DF91CF911F910F9164
:10458000FF90EF90DF90CF90BF90AF909F908F9073
:104590007F906F9008952F923F924F925F926F920B
:1045A0007F928F929F92AF92BF92CF92DF92EF92C3
:1045B000FF920F931F93CF93DF9300D000D0CDB71E
:1045C000DEB72C017E836D836A015901C801FC822C
:1045D000EB824801841A950A97FE03C09194819456
:1045E000910835012D813E81621A730A77FE03C05E
:1045F000719461947108681479045CF43A2D2B2D40
:104600005C01832F922F3D812E81DE82CD82C32ECD
:10461000D22EAD81BE81AA16BB065CF43C2D2D2D99
:104620006C01832F922F3D812E81BE82AD82A32EFD
:10463000B22E85012D813E81021B130B1C012C180B
:104640003D0837FE03C0319421943108780117FFEB
:1046500003C03FEFE31AF30AF594E794C816D906AE
:104660002CF08FEF9FEF9A83898304C0A1E0B0E024
:10467000BA83A9832D813E81A216B30624F1D2010B
:10468000ED91FC910084F185E02D2B813C81681433
:10469000790424F44D815E81B60103C0A6016D81C9
:1046A0007E81C2011995E218F308F7FE06C0298140
:1046B0003A81C20ED31EE00EF11E8D819E810196BD
:1046C0009E838D83D7CF26960FB6F894DEBF0FBE9C
:1046D000CDBFDF91CF911F910F91FF90EF90DF90B1
:1046E000CF90BF90AF909F908F907F906F905F9092
:1046F0004F903F902F90089585ED8093BC0080915E
:10470000BC0084FDFCCF10928C0708954091F10706
:10471000262F30E0240F311D21323105DCF42091A9
:104720008C072430C9F4FC0180E090E0861758F42F
:104730003091F1072191DC01AF52B84FA30FB11DA9
:104740002C930196F3CF8091F107680F6093F107E6
:1047500080E0089581E0089582E008950895089525
:104760000895E091850780918407E81730F4F0E020
:10477000EF54F84F808190E008958FEF9FEF0895F8
:104780009091850780918407981750F4E92FF0E005
:10479000EF54F84F208130E09F5F9093850702C06F
:1047A0002FEF3FEFC90108958091840790E0209199
:1047B0008507821B91090895CF92DF92EF92FF92B5
:1047C0000F931F93CF93DF937C01CB018A0120913C
:1047D000B007222389F0EB016B01C40ED51ECC1566
:1047E000DD0561F06991D701ED91FC910190F081B7
:1047F000E02DC7011995F3CF642F88DFC801DF9141
:10480000CF911F910F91FF90EF90DF90CF9008957F
:10481000CF93DF931F92CDB7DEB769832091B007A6
:104820002223D1F020918607203240F021E030E0B1
:10483000FC013383228380E090E014C080918707DD
:10484000E82FF0E0E057F84F998190838F5F8093D5
:1048500087078093860704C061E0CE01019656DF8A
:1048600081E090E00F90DF91CF910895089580E06E
:1048700090E008951F920F920FB60F9211240BB67D
:104880000F922F933F934F935F936F937F938F93E9
:104890009F93AF93BF93EF93FF938091B900887F6D
:1048A000803609F49CC068F5883209F45BC090F446
:1048B000803109F454C038F4882309F4F6C08830F4
:1048C00009F44DC0F5C0883109F44CC0803209F4B8
:1048D0005DC0EEC0803409F468C048F4803309F448
:1048E00055C0883309F0E4C080931408D8C08035DF
:1048F00009F44FC0883509F45DC0883409F0D8C088
:10490000D6C0883909F4C7C0A8F4883709F467C04D
:1049100038F4883609F463C0803709F460C0C8C031
:10492000883809F4B8C0803909F45FC0803809F0CC
:10493000BFC05BC0803B09F486C038F4803A09F4FC
:1049400066C0883A09F47FC0B3C0803C09F4A7C0B0
:10495000883C09F4A4C0883B09F48AC0A9C08091AE
:10496000370810C09091360880913508981770F577
:10497000E091360881E08E0F80933608F0E0EB5E20
:10498000F74F80818093BB0085EC86C0809314082C
:104990008EC0E091360881E08E0F809336088091BA
:1049A000BB00F0E0EB5EF74F80839091360880917A
:1049B00035086EC0E091360881E08E0F809336088E
:1049C0008091BB00F0E0EB5EF74F808380918E0713
:1049D00081116DC081E080938D0784EA61C083E01E
:1049E00080938C0710921308CFCF809113088032E8
:1049F00008F051C0E091130881E08E0F80931308F6
:104A00008091BB00F0E0ED50F84F8083BDCF85EC86
:104A10008093BC0010928C0780911308803230F490
:104A2000E0911308F0E0ED50F84F10826091130808
:104A300070E0E0918A07F0918B0783EF97E019957A
:104A40001092130835C084E080938C071092F2070F
:104A50001092F107E0918807F091890719958091EC
:104A6000F107811105C081E08093F1071092D10711
:104A7000E091F20781E08E0F8093F207F0E0EF52B1
:104A8000F84F80818093BB009091F2078091F107ED
:104A9000981708F479CF85E88093BC0009C085ECAD
:104AA0008093BC0010928C0703C01092140824DE7F
:104AB000FF91EF91BF91AF919F918F917F916F91F6
:104AC0005F914F913F912F910F900BBE0F900FBEB2
:104AD0000F901F901895CF92DF92EF92FF920F9355
:104AE0001F93CF93DF93EC0181E08093B00788E6BA
:104AF00080938F07109287071092860760E080EA04
:104B000096E086DE90918607913208F044C080914D
:104B10008C078111FCCF82E080938C0781E0809329
:104B20008E078FEF80931408109236089093350803
:104B3000A0E9B7E0E5E1F8E080E0981721F02D91D9
:104B400021938F5FFACF1092370880913708806DDC
:104B50008093370880918D07813061F410928D0722
:104B6000809137088093BB008091BC0083FDF8CF13
:104B700085EC01C085EE8093BC0080918C0782306B
:104B8000E1F3809114088F3F31F080911408803256
:104B900011F08091140810928707109286071092E6
:104BA000B00780918C078111FCCF81E080938C0746
:104BB00080938E079FEF909314081092360896E02A
:104BC000909335088093370880913708806D8093E3
:104BD000370880918D07813061F410928D078091A4
:104BE00037088093BB008091BC0083FDF8CF85EC33
:104BF00001C085EE8093BC0080918C078130E1F389
:104C000080913608873018F49091360801C097E0FB
:104C1000A5E1B8E0E1EBF7E080E0891721F02D9104
:104C200021938F5FFACF109285078093840780EAE3
:104C300096E0A6DD8F77982F92959F701AEF082F38
:104C4000919F000D112480EA96E09ADD9C013327A4
:104C500094E0359527959A95E1F7F82E129FF00C80
:104C6000112480EA96E08CDD9C01332744E03595E1
:104C700027954A95E1F7E82E129FE00C112480EA6F
:104C800096E07EDD80EA96E07BDD9C01332754E0F0
:104C9000359527955A95E1F7D82E129FD00C1124FF
:104CA00080EA96E06DDD9C01332764E03595279519
:104CB0006A95E1F7C82E129FC00C112480EA96E095
:104CC0005FDD9C01332774E0359527957A95E1F7F0
:104CD000129F800D11248883C982DA82EB82FC82C4
:104CE0000D83CE01DF91CF911F910F91FF90EF9037
:104CF000DF90CF9008950C9416526115710579F0EC
:104D0000FB0101900020E9F73197AF01461B570BDB
:104D1000DC01ED91FC910280F381E02D199480E09B
:104D200090E0089582E690E0E1D664EF71E080E0E3
:104D300090E019D482E690E0D9C6CF92DF92EF924C
:104D4000FF920F931F93CF93DF9354D76B017C0196
:104D500051D76C0D7D1D8E1D9F1D22E030E040E07F
:104D600050E00E942C52C1E7D7E08D819E81AF8137
:104D7000B88579018A01E81AF90A0A0B1B0BC801E8
:104D8000B7010E94035129853A854B855C850E94B5
:104D9000EE520E945653CB01DF91CF911F910F919C
:104DA000FF90EF90DF90CF9008956FEF7FEF88E452
:104DB00097E00C94C930EF92FF920F931F93EE246B
:104DC000EA94FE2C89019A01AB01BC0188E497E0CA
:104DD0000E944A321F910F91FF90EF900895FC01BD
:104DE000538D448D252F30E0842F90E0821B930B50
:104DF000541710F0CF96089501970895FC01918DF6
:104E0000828D981761F0828DDF01A80FB11D5D962C
:104E10008C91928D9F5F9F73928F90E008958FEF9A
:104E20009FEF0895FC01918D828D981731F0828D4E
:104E3000E80FF11D858D90E008958FEF9FEF0895A5
:104E4000FC01918D228D892F90E0805C9F4F821B09
:104E500091098F739927089586E695E0F1DF21E0A7
:104E6000892B09F420E0822F089583E096E0E8DFA3
:104E700021E0892B09F420E0822F0895FC01848D24
:104E8000DF01A80FB11DA35ABF4F2C91848D90E074
:104E900001968F739927848FA689B7892C93A0894F
:104EA000B1898C91837080648C93938D848D9813D9
:104EB00006C00288F389E02D80818F7D808308956C
:104EC000EF92FF920F931F93CF93DF93EC0181E05A
:104ED000888F9B8D8C8D981305C0E889F989808116
:104EE00085FD25C0F62E0B8D10E00F5F1F4F0F7351
:104EF0001127E02E8C8DE8120BC00FB607FCFACFFD
:104F0000E889F989808185FFF5CFCE01B7DFF2CF3F
:104F10008B8DFE01E80FF11DE35AFF4FF0829FB722
:104F2000F8940B8FEA89FB89808180620AC09FB761
:104F3000F894EE89FF896083E889F989808183701C
:104F4000806480839FBF81E090E0DF91CF911F91CB
:104F50000F91FF90EF900895CF93DF93EC01888D30
:104F60008823C1F0EA89FB89808185FD05C0A88975
:104F7000B9898C9186FD0EC00FB607FCF5CF8081F4
:104F800085FFF2CFA889B9898C9185FFEDCFCE013D
:104F900075DFE8CFDF91CF91089580E090E0892B15
:104FA00019F063DF811120C080E090E0892B19F0B7
:104FB00053DF81111CC080E090E0892B41F080E03C
:104FC00090E0892B21F00E940000811113C080E045
:104FD00090E0892BA1F080E090E0892B81F00E9485
:104FE000000081110AC008950E940000DDCF0E94D8
:104FF0000000E1CF0E940000EACF0C940000089569
:1050000090E0FC013197E231F10508F04EC08827AD
:10501000EE58FF4F8F4F0C949B53809180008F77F9
:1050200003C0809180008F7D8093800008958091DF
:105030008000877FF9CF84B58F7702C084B58F7DDC
:1050400084BD08958091B0008F7703C08091B00037
:105050008F7D8093B0000895809190008F7707C076
:10506000809190008F7D03C080919000877F809316
:10507000900008958091A0008F7707C08091A000D4
:105080008F7D03C08091A000877F8093A00008954A
:10509000809120018F7707C0809120018F7D03C010
:1050A00080912001877F8093200108953FB7F89475
:1050B0008091410890914208A0914308B091440822
:1050C00026B5A89B05C02F3F19F00196A11DB11D63
:1050D0003FBFBA2FA92F982F8827820F911DA11D9E
:1050E000B11DBC01CD0142E0660F771F881F991FDB
:1050F0004A95D1F708950E94B0550C9447541F92D9
:105100000F920FB60F9211240BB60F922F933F936D
:105110004F935F936F937F938F939F93AF93BF93BF
:10512000EF93FF9386E695E0A9DEFF91EF91BF91A3
:10513000AF919F918F917F916F915F914F913F912F
:105140002F910F900BBE0F900FBE0F901F901895D0
:105150001F920F920FB60F9211240BB60F922F933E
:105160008F939F93EF93FF93E0917605F0917705EE
:105170008081E0917C05F0917D0582FD12C09081D7
:1051800080917F058F5F8F7320918005821751F08A
:10519000E0917F05F0E0EA59FA4F958F80937F0503
:1051A00001C08081FF91EF919F918F912F910F907E
:1051B0000BBE0F900FBE0F901F9018951F920F926D
:1051C0000FB60F9211240BB60F922F933F934F936C
:1051D0005F936F937F938F939F93AF93BF93EF935F
:1051E000FF9383E096E04ADEFF91EF91BF91AF918C
:1051F0009F918F917F916F915F914F913F912F91EF
:105200000F900BBE0F900FBE0F901F9018951F921E
:105210000F920FB60F9211240BB60F922F938F930C
:105220009F93EF93FF93E0911306F0911406808112
:10523000E0911906F0911A0682FD12C090818091CA
:105240001C068F5F8F7320911D06821751F0E0912D
:105250001C06F0E0ED5FF94F958F80931C0601C0AE
:105260008081FF91EF919F918F912F910F900BBEB5
:105270000F900FBE0F901F901895CF93DF93282F9C
:1052800030E0F901E352F94F8491F901E85FFE4FF4
:10529000D491F901E859FE4FC491CC2389F08111D2
:1052A000AFDEEC2FF0E0EE0FFF1FED53F94FA591AD
:1052B000B491EC91ED2381E090E021F480E002C014
:1052C00080E090E0DF91CF9108951F93CF93DF931B
:1052D000282F30E0F901E352F94F8491F901E85F9A
:1052E000FE4FD491F901E859FE4FC491CC23B9F097
:1052F000162F811185DEEC2FF0E0EE0FFF1FE25B31
:10530000FE4FA591B4919FB7F894111104C08C91F0
:10531000D095D82302C0EC91DE2BDC939FBFDF91A8
:10532000CF911F910895CF92DF92EF92FF920F934A
:105330001F93CF93DF936C018B017A01EC01C85C62
:10534000D74F888187FF04C0FB011182108224C0DF
:105350002CE02C9DC0012D9D900D11242881AC01C5
:10536000420F511D27FD5A952091440730E0421706
:10537000530794F42881AC01420F511D27FD5A9523
:105380009A01FA01EE0FFF1F2E0F3F1FF901EC5497
:10539000F94F208126FD19C088818F5F88832CE01A
:1053A0002C9DC0012D9D900D11242881AC01420F30
:1053B000511D27FD5A952091440730E042175307AD
:1053C000B4F428812C303CF112C02881820F911D49
:1053D00027FD9A95FC01EE0FFF1F8E0F9F1FFC010A
:1053E000EC54F94F808160E08F736FDFD5CFF80107
:1053F00080819181049680349C4918F480E49CE972
:1054000004C0F801808191810496F7019183808323
:105410008FEF888344C0F801408151812881BC010D
:10542000620F711D27FD7A959B01FB01EE0FFF1F97
:105430002E0F3F1FF901EC54F94F21813281240FC7
:10544000351FF701318320832881AC01420F511DA4
:1054500027FD5A959A01FA01EE0FFF1F2E0F3F1FED
:10546000F901EC54F94F208126FF19C02881820FE1
:10547000911D27FD9A95FC01EE0FFF1F8E0F9F1FB8
:10548000FC01EC54F94F808161E08F73DF91CF9183
:105490001F910F91FF90EF90DF90CF9016CFDF918B
:1054A000CF911F910F91FF90EF90DF90CF900895D3
:1054B000CF93DF9390E0FC01E85FFE4F2491FC0165
:1054C000E859FE4F8491882361F190E0880F991F7D
:1054D000FC01E755F94FC591D491FC01E25BFE4F09
:1054E000A591B491611109C09FB7F8948881209566
:1054F00082238883EC912E230BC0623061F49FB726
:10550000F8948881322F309583238883EC912E2B59
:105510002C939FBF06C08FB7F894E8812E2B288369
:105520008FBFDF91CF910895863308F08653909115
:105530007B00282F2870977F922B90937B00877099
:10554000806480937C0080917A00806480937A00EC
:1055500080917A0086FDFCCF8091780020917900BF
:1055600090E0922B08958F929F92AF92BF92CF922C
:10557000DF92EF92FF926B017C0198DD4B015C01A1
:10558000C114D104E104F104E9F090DDDC01CB01A8
:1055900088199909AA09BB09883E9340A105B1055C
:1055A00078F321E0C21AD108E108F10888EE880EEC
:1055B00083E0981EA11CB11CC114D104E104F104C4
:1055C00021F7DECFFF90EF90DF90CF90BF90AF90AC
:1055D0009F908F9008951F920F920FB60F921124F3
:1055E0002F933F938F939F93AF93BF9380913D08E9
:1055F00090913E08A0913F08B091400830913C083E
:1056000023E0230F2D3720F40196A11DB11D05C005
:1056100026E8230F0296A11DB11D20933C0880931C
:105620003D0890933E08A0933F08B09340088091B6
:10563000410890914208A0914308B0914408019616
:10564000A11DB11D8093410890934208A093430887
:10565000B0934408BF91AF919F918F913F912F914B
:105660000F900FBE0F901F90189508951F920F92E4
:105670000FB60F9211240BB60F922F933F934F93B7
:105680005F936F937F938F939F93AF93BF93EF93AA
:10569000FF9348E251E064E271E080E090E043DE95
:1056A000FF91EF91BF91AF919F918F917F916F91FA
:1056B0005F914F913F912F910F900BBE0F900FBEB6
:1056C0000F901F9018951F920F920FB60F921124F2
:1056D0000BB60F922F933F934F935F936F937F93EC
:1056E0008F939F93AF93BF93EF93FF9348EA50E05C
:1056F00064EA70E083E090E016DEFF91EF91BF91E5
:10570000AF919F918F917F916F915F914F913F9159
:105710002F910F900BBE0F900FBE0F901F901895FA
:105720001F920F920FB60F9211240BB60F922F9368
:105730003F934F935F936F937F938F939F93AF9319
:10574000BF93EF93FF9348E950E064E970E082E093
:1057500090E0E9DDFF91EF91BF91AF919F918F9123
:105760007F916F915F914F913F912F910F900BBE61
:105770000F900FBE0F901F9018951F920F920FB6AB
:105780000F9211240BB60F922F933F934F935F9379
:105790006F937F938F939F93AF93BF93EF93FF93F9
:1057A00048E850E064E870E081E090E0BCDDFF9103
:1057B000EF91BF91AF919F918F917F916F915F9189
:1057C0004F913F912F910F900BBE0F900FBE0F90F6
:1057D0001F9018958F929F92AF92BF92CF92DF92B7
:1057E000EF92FF92CF93DF93FC01A08DB18D9C913E
:1057F00084A189238C93A28DB38D9C9185A189234B
:105800008C938EB170E0DB01AA0FBB1FAA0FBB1FE8
:10581000A0738F7C8A2B8EB98EB1DB01B595A795CD
:10582000B595A795A870877F8A2B8EB984B3DB01C5
:10583000AA0FBB1FA0728F7D8A2B84BBA2E0B1E0B0
:105840008C91EB0193E0D595C7959A95E1F7C871D6
:10585000877E8C2B8C938C91C5E0660F771FCA9541
:10586000E1F760768F79682B6C93C48DD58D988124
:1058700086A189238883C48DD58D988182A1892BA7
:105880008883C28DD38D988181A1892B888383E2FF
:1058900090E0EC012197F1F76EB1C52EDD24EE24E6
:1058A000FF247C2D770F770F70736F7C672B6EB999
:1058B0006EB149015A017AE1B694A79497948794FE
:1058C0007A95D1F7782D7870677F672B6EB964B3BE
:1058D0007C2D770F70726F7D672B64BB6C914901D3
:1058E0005A01CBE1B694A79497948794CA95D1F7BF
:1058F000782D7871677E672B6C936C917C2D7295F7
:10590000770F70766F79C72EC62ACC92C48DD58D4D
:10591000788166A167236883C48DD58D788162A163
:10592000672B6883EC012197F1F76EB16A01EE24D1
:10593000FF247C2D770F770F70736F7C672B6EB908
:105940006EB149015A0172E1B694A7949794879475
:105950007A95D1F7782D7870677F672B6EB964B32D
:105960007C2D770F70726F7D672B64BB6C91490142
:105970005A01C3E1B694A79497948794CA95D1F736
:10598000782D7871677E672B6C936C917C2D729566
:10599000770F70766F79C72EC62ACC92C48DD58DBD
:1059A000788166A167236883C48DD58D788162A1D3
:1059B000672B6883EC012197F1F76EB1C32ED42ECB
:1059C000E52EFF247C2D770F770F70736F7C672B8C
:1059D0006EB96EB149015A017AE0B694A7949794D2
:1059E00087947A95D1F7782D7870677F672B6EB999
:1059F00064B37C2D770F70726F7D672B64BB6C91E5
:105A000049015A01CBE0B694A79497948794CA951C
:105A1000D1F7782D7871677E672B6C936C917C2D14
:105A20007295770F70766F79C72EC62ACC92C48D87
:105A3000D58D788166A167236883C48DD58D7881E3
:105A400062A1672B68830197F1F78EB1922F990FAE
:105A5000990F90738F7C892B8EB98EB169017A0171
:105A6000D2E0F694E794D794C794DA95D1F79C2DB9
:105A70009870877F892B8EB984B3922F990F90727B
:105A80008F7D892B84BB8C9169017A0193E0F69418
:105A9000E794D794C7949A95D1F79C2D9871877EF7
:105AA000892B8C938C912295220F20768F79282B2D
:105AB0002C93A48DB58D9C9186A189238C93A48D64
:105AC000B58D9C9182A1892B8C93A08DB18D9C91D9
:105AD00080A1892B8C93DF91CF91FF90EF90DF9085
