:100000000C9435000C945D000C945D000C945D0024
:100010000C945D000C945D000C945D000C945D00EC
:100020000C945D000C945D000C945D000C945D00DC
:100030000C945D000C945D000C945D000C945D00CC
:100040000C945B020C945D000C9429020C94030246
:100050000C945D000C945D000C945D000C945D00AC
:100060000C945D000C945D00A50211241FBECFEF1F
:10007000D8E0DEBFCDBF22E0ACE6B1E001C01D920A
:10008000AE35B207E1F711E0A0E0B1E0E8EDF9E04C
:1000900002C005900D92AC36B107D9F710E0C5E368
:1000A000D0E004C02197FE010E94DF04C433D107D1
:1000B000C9F70E94E4020C94EA040C940000E9E7FA
:1000C000F1E0A089B18982E08C93A485B5851C926A
:1000D000A685B7858FEC8C93108EA489B58986E0B0
:1000E0008C93A289B3898C9180618C93A289B38906
:1000F0008C9188608C93A289B3898C9180688C9351
:100100000288F389E02D80818F7D80830895CF92CE
:10011000DF92EF92FF920F931F93CF93DF936C01C7
:100120007A018B01C0E0D0E0CE15DF0581F0D80167
:100130006D918D01D601ED91FC910190F081E02D42
:10014000C6010995892B11F02196EECF7E01C701DA
:10015000DF91CF911F910F91FF90EF90DF90CF90A3
:100160000895FC01538D448D252F30E0842F90E0BD
:10017000821B930B541710F0CF96089501970895A2
:10018000FC01918D828D981761F0828DDF01A80F9F
:10019000B11D5D968C91928D9F5F9F73928F90E0C1
:1001A00008958FEF9FEF0895FC01918D828D981730
:1001B00031F0828DE80FF11D858D90E008958FEF6D
:1001C0009FEF0895FC01918D228D892F90E0805C36
:1001D0009F4F821B91098F739927089589E791E0BA
:1001E0000E94E20021E0892B09F420E0822F08958B
:1001F000FC01848DDF01A80FB11DA35ABF4F2C91C4
:10020000848D90E001968F739927848FA689B78992
:100210002C93A089B1898C91837080648C93938D89
:10022000848D981306C00288F389E02D80818F7D2C
:1002300080830895EF92FF920F931F93CF93DF93E4
:10024000EC0181E0888F9B8D8C8D981305C0E88927
:10025000F989808185FD26C0F62E0B8D10E00F5F99
:100260001F4F0F731127E02E8C8DE8120CC00FB6B4
:1002700007FCFACFE889F989808185FFF5CFCE01A7
:100280000E94F800F1CF8B8DFE01E80FF11DE35ABB
:10029000FF4FF0829FB7F8940B8FEA89FB8980812A
:1002A00080620AC09FB7F894EE89FF896083E8896D
:1002B000F98980818370806480839FBF81E090E0B2
:1002C000DF91CF911F910F91FF90EF900895CF9301
:1002D000DF93EC01888D8823C9F0EA89FB8980814E
:1002E00085FD05C0A889B9898C9186FD0FC00FB620
:1002F00007FCF5CF808185FFF2CFA889B9898C9161
:1003000085FFEDCFCE010E94F800E7CFDF91CF91BE
:10031000089580E090E0892B29F00E94EE00811181
:100320000C94000008952FB7F894609171017091BA
:10033000720180917301909174012FBF0895089507
:1003400080E090E008956115710579F0FB0101905E
:100350000020E9F73197AF01461B570BDC01ED9107
:10036000FC910280F381E02D099480E090E00895F3
:100370008F929F92AF92BF92EF92FF920F931F9333
:10038000CF93DF93CDB7DEB7A1970FB6F894DEBF5A
:100390000FBECDBF7C01FA01CB0119A2223008F4B7
:1003A0002AE08E010F5D1F4F822E912CA12CB12CC3
:1003B000BF01A50194010E94BD04F901CA010150C9
:1003C00011096A3014F4605D01C0695CD8016C9356
:1003D000232B242B252B61F7B801C7010E94A30111
:1003E000A1960FB6F894DEBF0FBECDBFDF91CF91BF
:1003F0001F910F91FF90EF90BF90AF909F908F90C3
:1004000008950E94E5041F920F920FB60F921124D7
:100410002F933F934F935F936F937F938F939F930C
:10042000AF93BF93EF93FF9389E791E00E94F800A9
:10043000FF91EF91BF91AF919F918F917F916F91BC
:100440005F914F913F912F910F900FBE0F901F9092
:1004500018951F920F920FB60F9211242F938F931E
:100460009F93EF93FF93E0918901F0918A0180813E
:10047000E0918F01F091900182FD12C090818091F6
:1004800092018F5F8F7320919301821751F0E09159
:100490009201F0E0E758FE4F958F8093920101C0E2
:1004A0008081FF91EF919F918F912F910F900FBEBF
:1004B0000F901F9018951F920F920FB60F92112454
:1004C0002F933F938F939F93AF93BF93809171012D
:1004D00090917201A0917301B091740130917001FB
:1004E00023E0230F2D3720F40196A11DB11D05C077
:1004F00026E8230F0296A11DB11D20937001809361
:10050000710190937201A0937301B0937401809173
:100510006C0190916D01A0916E01B0916F010196F7
:10052000A11DB11D80936C0190936D01A0936E018C
:10053000B0936F01BF91AF919F918F913F912F9198
:100540000F900FBE0F901F901895E9E7F1E013820E
:10055000128288EE93E0A0E0B0E084839583A683C6
:10056000B78384E091E09183808385EC90E0958768
:10057000848784EC90E09787868780EC90E0918B6D
:10058000808B81EC90E0938B828B82EC90E0958B5A
:10059000848B86EC90E0978B868B118E128E138E57
:1005A000148EE6E1F2E0168217821086118612861A
:1005B00013861486158616861786108A118A128A63
:1005C000138A148A158A0895789484B5826084BD4C
:1005D00084B5816084BD85B5826085BD85B5816047
:1005E00085BD80916E00816080936E0010928100C5
:1005F0008091810082608093810080918100816080
:100600008093810080918000816080938000809140
:10061000B10084608093B1008091B00081608093CC
:10062000B00080917A00846080937A0080917A0093
:10063000826080937A0080917A00816080937A0052
:1006400080917A00806880937A001092C1001092A5
:100650005A0210925B0210925C0210925D0210929C
:1006600018021092190210921A0210921B020E9494
:1006700093016B017C014B015C0128EB820E2BE0A6
:10068000921EA11CB11C0E9493016C157D058E0564
:100690009F0528F086169706A806B906A0F789E7F1
:1006A00091E090935902809358020E945F000E944B
:1006B0009301609318027093190280931A02909329
:1006C0001B0262E171E080915802909159020E94F0
:1006D000A3010E9493016B017C014B015C013AE094
:1006E000830E911CA11CB11C0E9493016C157D0509
:1006F0008E059F0528F086169706A806B906A0F76E
:1007000081E080932C020E945F0064E271E089E73F
:1007100091E00E94A30161E271E089E791E00E940B
:10072000A30184EF882E99249394A12CB12C0E94CC
:100730009301672B682B692B41F40E94930162306F
:1007400071058105910508F40FC10E949301C090C5
:100750007501D0907601E0907701F09078016C15EA
:100760007D058E059F0540F46093750170937601B9
:100770008093770190937801C0907501D0907601B5
:10078000E0907701F09078019B01AC012C193D09B4
:100790004E095F0969017A013AEFC316D104E104F9
:1007A000F10408F4E1C060937501709376018093C1
:1007B0007701909378018092240290922502A09272
:1007C0002602B0922702109228021092290210925B
:1007D0002A0210922B0280911C0290911D02A0917E
:1007E0001E02B0911F028093200290932102A093D9
:1007F0002202B09323020E94930160931C02709323
:100800001D0280931E0290931F020E949301609329
:1008100018027093190280931A0290931B020E948F
:1008200093016B017C0167E571E080915802909122
:1008300059020E94A3012AE041E050E060E070E02C
:1008400080915802909159020E94B8016EE571E0C2
:1008500080915802909159020E94A3012AE0B701A9
:10086000A60180915802909159020E94B80160E659
:1008700071E080915802909159020E94A3018091E9
:100880001C0290911D02A0911E02B0911F02B7019F
:10089000A601481B590B6A0B7B0B2AE0809158027A
:1008A000909159020E94B80160E671E0809158026F
:1008B000909159020E94A30140911C0250911D0287
:1008C00060911E0270911F0280912002909121027E
:1008D000A0912202B0912302481B590B6A0B7B0B9B
:1008E0002AE080915802909159020E94B80162E674
:1008F00071E080915802909159020E94A3010E94D8
:100900009301AB01BC012AE08091580290915902F9
:100910000E94B801E0905802F090590264E671E03C
:10092000C7010E94A30161E271E0C7010E94A30117
:100930000E9493016B017C012B013C0145E0440EB8
:10094000511C611C711C0E9493016C157D058E0564
:100950009F0568F40E94930160931C0270931D022E
:1009600080931E0290931F020E948901E0CE4616DA
:1009700057066806790638F7EDCFA1E21A2EAA1BB2
:10098000BB1BFD010DC0AA1FBB1FEE1FFF1FA2173F
:10099000B307E407F50720F0A21BB30BE40BF50B3C
:1009A000661F771F881F991F1A9469F760957095C5
:1009B000809590959B01AC01BD01CF010895EE0F8C
:1009C000FF1F0590F491E02D099481E090E0F894E8
:0809D0000C94EA04F894FFCF37
:1009D800000000001A018700B1006701E200C000B2
:1009E800D400564D4450565F317C315F564D4450CB
:1009F800560D0A002D2D2D2D2D2D2D2D2D2D2D2D66
:100A08002D2D2D494E494349414E444F20434F4EC9
:100A1800534F4C412D2D2D2D2D2D2D2D2D2D2D2D83
:100A28002D2D2D2D2D2D00564D4450455F003A3269
:0C0A38003A007C005F564D445045000021
:107E0000112484B714BE81FFF0D085E080938100F7
:107E100082E08093C00088E18093C10086E0809377
:107E2000C20080E18093C4008EE0C9D0259A86E02C
:107E300020E33CEF91E0309385002093840096BBD3
:107E4000B09BFECF1D9AA8958150A9F7CC24DD24C4
:107E500088248394B5E0AB2EA1E19A2EF3E0BF2EE7
:107E6000A2D0813461F49FD0082FAFD0023811F036
:107E7000013811F484E001C083E08DD089C08234E0
:107E800011F484E103C0853419F485E0A6D080C0E4
:107E9000853579F488D0E82EFF2485D0082F10E0AE
:107EA000102F00270E291F29000F111F8ED06801E7
:107EB0006FC0863521F484E090D080E0DECF843638
:107EC00009F040C070D06FD0082F6DD080E0C81688
:107ED00080E7D80618F4F601B7BEE895C0E0D1E017
:107EE00062D089930C17E1F7F0E0CF16F0E7DF06D8
:107EF00018F0F601B7BEE89568D007B600FCFDCFD4
:107F0000A601A0E0B1E02C9130E011968C91119780
:107F100090E0982F8827822B932B1296FA010C0160
:107F200087BEE89511244E5F5F4FF1E0A038BF0790
:107F300051F7F601A7BEE89507B600FCFDCF97BE46
:107F4000E89526C08437B1F42ED02DD0F82E2BD052
:107F50003CD0F601EF2C8F010F5F1F4F84911BD097
:107F6000EA94F801C1F70894C11CD11CFA94CF0C13
:107F7000D11C0EC0853739F428D08EE10CD085E9AC
:107F80000AD08FE07ACF813511F488E018D01DD067
:107F900080E101D065CF982F8091C00085FFFCCF94
:107FA0009093C60008958091C00087FFFCCF809118
:107FB000C00084FD01C0A8958091C6000895E0E648
:107FC000F0E098E1908380830895EDDF803219F02E
:107FD00088E0F5DFFFCF84E1DECF1F93182FE3DFCA
:107FE0001150E9F7F2DF1F91089580E0E8DFEE27F6
:047FF000FF270994CA
:027FFE00040479
:0400000300007E007B
:00000001FF